:100000000C94D3010C94FB010C94FB010C94FB01A8
:100010000C94FB010C94FB010C94FB010C94FB0170
:100020000C94FB010C94FB010C94FB010C94FB0160
:100030000C94FB010C94FB010C94FB010C94FB0150
:100040000C94FB010C94C5110C94B6630C94E663FC
:100050000C94E20F0C94FB010C94FB010C94FB013B
:100060000C94FB010C94FB010C94FB010C94FB0120
:100070000C94FB010C94FB010C94FB0115513651BF
:1000800054517051C0519551C0513A586A587358E3
:100090008B5873588B585658B458905AA95ABF5A0F
:1000A000C75AD45AFD5ADB5AE85AF05AFD5A004052
:1000B0007A10F35A00A0724E18090010A5D4E80077
:1000C00000E87648170000E40B54020000CA9A3B8F
:1000D000000000E1F5050000809698000000404215
:1000E0000F000000A08601000000102700000000A3
:1000F000E803000000006400000000000A000000A7
:1001000000000100000000002C76D888DC674F0852
:1001100023DFC1DFAE59E1B1B796E5E3E453C63A58
:10012000E651997696E8E6C28426EB898C9B62EDCF
:10013000407C6FFCEFBC9C9F40F2BAA56FA5F49089
:10014000055A2AF75C936B6CF9676DC11BFCE0E400
:100150000D47FEF520E6B500D0ED902E0300943556
:1001600077050080841E080000204E0A000000C8A9
:100170000C333333330F986E12831141EF8D2114FA
:10018000893BE65516CFFEE6DB18D1844B381BF7CA
:100190007C1D901DA4BBE424203284725E22810069
:1001A000C9F124ECA1E53D270000000012F1010097
:1001B0001AF1010003F501000BF5010001F801003F
:1001C00002F8010005F80100000000000020446171
:1001D00074613A00204C656E3A0020446573743AAD
:1001E0000020536F757263653A002050474E3A0005
:1001F0005072693A00203A2000002C00537461725A
:1002000074206164647265737320636C61696D202E
:10021000666F722064657669636520002073656E81
:1002200064206661696C6564002F002C2066726131
:100230006D653A0050474E20002073656E6420665D
:1002400061696C65640050474E200043414E206454
:100250006576696365206661696C656420746F20EA
:100260006F70656E0043414E20646576696365205A
:1002700072656164790000004E4D45413230303086
:10028000206C6962726172792C2068747470733AA0
:100290002F2F6769746875622E636F6D2F74746C8D
:1002A000617070616C61696E656E2F4E4D454132B3
:1002B0003030300035089A0241726475696E6F20E3
:1002C0004E326B2D3E504300000000000000000045
:1002D000000000000000000000312E302E302E30D3
:1002E000000000000000000000000000000000000E
:1002F00000000000000000000000312E302E300011
:1003000000000000000000000000000000000000ED
:1003100000000000000000000000003030303030ED
:10032000303031000000000000000000000000003C
:10033000000000000000000000000000000100E8D4
:10034000000000EA000000EB000000EC000000EEFE
:100350000000D8FE000000ED01000000000000E8F1
:10036000000000EA000000EB000000EC000000EEDE
:10037000000000ED010000EE010011F0010014F09A
:10038000010016F0010000000000120C370E0C37BF
:10039000080C37060C37060413020413620D4410D0
:1003A000F21CFB636F0D11241FBECFEFD0E1DEBF47
:1003B000CDBF12E0A0E0B1E0E8E4F7ED02C00590A7
:1003C0000D92AE3CB107D9F726E0AEECB2E001C029
:1003D0001D92AC32B207E1F711E0C2EDD1E004C0EA
:1003E0002197FE010E946564CE3CD107C9F70E94A7
:1003F00072100C94976B0C9400006AE176E00E94F6
:1004000004028AE196E00895A4E0B0E0EAE0F2E0B8
:100410000C946A6B6C017B01E0912A06F0912B062B
:10042000309729F066E276E009958C0102C00FEF63
:100430001FEFF60140815181628173818091260610
:1004400090912706A0912806B0912906840F951F48
:10045000A61FB71F101611064CF4A801012E000CA0
:10046000660B770B840F951FA61FB71F89839A838E
:10047000AB83BC83B701CE0101960E949F02F701B6
:10048000138702872496E8E00C94866BA4E0B0E022
:10049000ECE4F2E00C946A6B8C010E9466036983C1
:1004A0007A838B839C83F8018285938597FF0EC0A6
:1004B000E0912A06F0912B06309741F066E276E053
:1004C000CE0101960995F80193878287F80182850C
:1004D00093851816190694F4092E000CAA0BBB0B71
:1004E00049815A816B817C816A017B01C81AD90AD2
:1004F000EA0AFB0AC982DA82EB82FC8289819A814C
:10050000AB81BC8140912606509127066091280658
:1005100070912906841B950BA60BB70B89839A83D0
:10052000AB83BC83B801CE0101960E9404026981AD
:100530007A818B819C812496E8E00C94866BA8E0FC
:10054000B0E0E5EAF2E00C946A6B8B01FC0160819B
:1005500071818281938120E831E541E050E00E9481
:10056000436469017A012CE330E040E050E00E94EE
:10057000416B29833A834B835C8389819A81AB8168
:10058000BC81F80160836CE370E00E942F64DC01A1
:10059000CB01F801A1838283C601069667E070E073
:1005A0000E941B6484832DEA3EE840E050E0C701CE
:1005B000B6010E94416B29833A836D837E838F83CA
:1005C000988789819A8124E6289F6001299FD00C11
:1005D00011246D817E818F81988525EB35E040E087
:1005E00050E00E94416B29833A836D837E83E980CA
:1005F000FA80EE0CFF1CEE0CFF1CEC0CFD1C8D8138
:100600009E81F5E6EF16F10410F0019604C024E691
:10061000E216F10419F021E030E002C020E030E001
:10062000A90144595E4F4817590768F46DE671E017
:10063000821B930B0E942F64DC01CB01E80EF91E94
:10064000CD0120E030E044E6E40EF11CF801F78231
:10065000E68291878087255C3F4F8217930748F495
:100660006FE170E00E942F64DC01CB01F80185830B
:1006700022C069E970E0821B930B0E942F64DC01A9
:10068000CB01F82EFF0CFF0CF80E6DE370E0CD01EE
:100690000E942F64DC01CB01E82EEE0C6FE170E0CC
:1006A000CD010E942F64DC01CB0122E0280FF20E65
:1006B000FE0CF801F582A383F8011386128683816C
:1006C0008F5F83832896E8E00C94866BA0E0B0E00F
:1006D000ECE6F3E00C94666BEC01EE81FF818F0198
:1006E00004561109B9F0CF01855691096C0197FFA5
:1006F00003C023E0C20ED11CD594C794D594C794EF
:100700006CE97FEF0E942F64C60ED71E8FEFC81AC8
:10071000D80A02C0C12CD12C2DE631E0D8010E94AC
:100720006B640D2C000CEE08FF08C60ED71EE81EE9
:10073000F91E8B81082E000C990B8C0101501109B8
:100740002D8122302CF4222379F1015E1F4F2CC021
:10075000CF018459984F0E941104282F30E0255C66
:100760003F4F200F311F8D81082E000C990B0297EF
:100770008530910514F027563F4F65E070E00E94E8
:100780002F64AC0197FF02C04F5F5F4F55954795AF
:100790009DE3949F8001959F100D1124020F131F5C
:1007A00080FF02C0015E1F4FC801110FAA0BBB0BD7
:1007B0009C01AD012C0D3D1D4E1D5F1D60E871E5D6
:1007C00081E090E00E94FF634B015C01AA810A2E48
:1007D000000CBB0B20E13EE00E946B646B017C01CE
:1007E000A9810A2E000CBB0B2CE330E00E946B6445
:1007F000C60ED71EE81EF91E6881862F660F990B5C
:10080000AA0BBB0B8C0D9D1DAE1DBF1DBC01CD01E8
:10081000680D791D8A1D9B1DCDB7DEB7ECE00C94E9
:10082000826B9C0123703327232B59F464E670E01C
:100830000E942F64892B39F46370772781E0672B3E
:1008400019F080E0089581E00895CF93DF93CDB74C
:10085000DEB780E090E0DC01BC01CD01DF91CF91FB
:1008600008951F93CF93DF9300D000D0CDB7DEB7AC
:1008700069837A838B839C8388E29BE6AEE6BEEC39
:1008800011E09C01AD0169817A818B819C810E947C
:10089000E90D882309F010E0812F0F900F900F9041
:1008A0000F90DF91CF911F910895CF93DF9300D0E8
:1008B000CDB7DEB79A8389832DE531E089819A81AE
:1008C000FC013183208389819A81FC018481958197
:1008D000892B51F089819A81FC018481958129813C
:1008E0003A81B9010E94963580E090E0892B21F091
:1008F00089819A810E9485100F900F90DF91CF918E
:100900000895CF93DF9300D0CDB7DEB79A83898364
:1009100089819A810E94550489819A810E9485105B
:100920000F900F90DF91CF910895CF93DF9300D078
:10093000CDB7DEB79A8389830E940F12DC01CB0109
:1009400088519C4FAF4FBF4F29813A81285B3F4F61
:10095000F90180839183A283B38300000F900F90ED
:10096000DF91CF910895EF92FF920F931F93CF9352
:10097000DF93CDB7DEB72C970FB6F894DEBF0FBE6E
:10098000CDBF9A8389837C836B835E834D83388755
:100990002F831A870987FC86EB86AB85BC85E985A2
:1009A000FA852F8138854D815E816B817C818981BB
:1009B0009A817D018F010E94FD1C2C960FB6F89440
:1009C000DEBF0FBECDBFDF91CF911F910F91FF9082
:1009D000EF9008950F931F93CF93DF93CDB7DEB7BA
:1009E0002A970FB6F894DEBF0FBECDBF9A838983D6
:1009F0007C836B835E834D8338872F831A870987B7
:100A0000E985FA852F8138854D815E816B817C81F6
:100A100089819A818F010E947F1D2A960FB6F894D2
:100A2000DEBF0FBECDBFDF91CF911F910F91089513
:100A30000F931F93CF93DF93CDB7DEB72A970FB6EF
:100A4000F894DEBF0FBECDBF9A8389837C836B830E
:100A50005E834D8338872F831A870987E985FA8556
:100A60002F8138854D815E816B817C8189819A815E
:100A70008F010E94EC1D2A960FB6F894DEBF0FBEC0
:100A8000CDBFDF91CF911F910F910895CF93DF9349
:100A900000D000D0CDB7DEB79A8389837C836B8387
:100AA0008B819C81FC0183819481A581B6818330F7
:100AB000F5EF9F07F1E0AF07B105A1F082302DEF10
:100AC000920721E0A207B105A1F08231914FA14028
:100AD000B10509F015C02B813C8189819A81B9014A
:100AE0000E949A062B813C8189819A81B9010E94DA
:100AF000B1072B813C8189819A81B9010E947D08CF
:100B000000000F900F900F900F90DF91CF910895FC
:100B1000CF92DF92EF92FF92CF93DF9300D0CDB7C9
:100B2000DEB79A83898389819A810E942E098981FF
:100B30009A81FC0186A597A5A0A9B1A96C017D01A8
:100B4000F0EDCF0EF7E0DF1EE11CF11C0E940F124A
:100B5000DC01CB0121E0C816D906EA06FB0608F045
:100B600020E0222359F088E29BE6AEE6BEEC298124
:100B70003A81F901828F938FA48FB58F89819A81F1
:100B8000FC0182A993A9A4A9B5A96C017D01F0ED8E
:100B9000CF0EF7E0DF1EE11CF11C0E940F12DC01FA
:100BA000CB0121E0C816D906EA06FB0608F020E0D2
:100BB0002223B1F088E29BE6AEE6BEEC29813A81C1
:100BC000F901868F978FA0A3B1A388E29BE6AEE6DA
:100BD000BEEC29813A81F90182A393A3A4A3B5A312
:100BE00089819A81FC0186A997A9A0ADB1AD6C015C
:100BF0007D01F0EACF0EFFE0DF1EE11CF11C0E9438
:100C00000F12DC01CB0121E0C816D906EA06FB066B
:100C100008F020E02223B1F088E29BE6AEE6BEECCD
:100C200029813A81F90182879387A487B58788E271
:100C30009BE6AEE6BEEC29813A81F901868797876B
:100C4000A08BB18B89819A81CE96FC0180819181A4
:100C5000A281B3816C017D01F0EDCF0EF7E0DF1EC4
:100C6000E11CF11C0E940F12DC01CB0121E0C8162F
:100C7000D906EA06FB0608F020E02223B1F088E25C
:100C80009BE6AEE6BEEC29813A81F90186A397A3E3
:100C9000A0A7B1A788E29BE6AEE6BEEC29813A8127
:100CA000F90182A793A7A4A7B5A700000F900F9002
:100CB000DF91CF91FF90EF90DF90CF900895CF9389
:100CC000DF9300D000D0CDB7DEB79A8389837C83D1
:100CD0006B8389819A81845B9F4FFC018081918124
:100CE000892B61F089819A81845B9F4FFC0180810F
:100CF00091812B813C81B9010E941E1489819A81C6
:100D0000825B9F4FFC0180819181892B59F0898101
:100D10009A81825B9F4FFC01208131818B819C8174
:100D2000F901099500000F900F900F900F90DF913F
:100D3000CF910895AF92BF92CF92DF92EF92FF9240
:100D40000F931F93CF93DF93CDB7DEB7CC57D10965
:100D50000FB6F894DEBF0FBECDBF9E0127583F4FA0
:100D6000D9018D939C93CE0185589F4FFC017183CF
:100D700060831B821C821D821E82CE010B960E9404
:100D8000AC19CE0187589F4FDC018D919C91AC012D
:100D9000465E5F4FFE013296BE01695F7F4F9E0146
:100DA0002D5F3F4FCE0185589F4FDC018D919C9167
:100DB0007F018B01BE016F5F7F4F0E94B3048823C8
:100DC00009F4BCC08A81813009F070C08F81988598
:100DD000A985BA85BC01CD010E943104982F81E01C
:100DE0008927882379F08F819885A985BA859E0106
:100DF00027583F4FF90120813181F901868B978B6C
:100E0000A08FB18FCE0187589F4FDC018D919C91AF
:100E1000FC01828D938DA48DB58DBC01CD010E9406
:100E20003104982F81E089278823B1F0CE018758BB
:100E30009F4FDC018D919C91FC0186899789A08D43
:100E4000B18DBC01CD010E943104982F81E089272A
:100E5000882311F081E001C080E0882339F1CE01C0
:100E600087589F4FDC018D919C91FC01828D938D61
:100E7000A48DB58D9E0127583F4FF9012081318106
:100E8000F90126893789408D518DBC01CD010E9421
:100E90007C0DDC01CB019E0127583F4FF9012081D9
:100EA0003181F901828F938FA48FB58F0E940F1229
:100EB000DC01CB019E0127583F4FF9012081318190
:100EC000F90186A797A7A0ABB1ABCE0187589F4F7A
:100ED000DC018D919C91FC01E688F788008D118DD5
:100EE0002B813C814D815E81CE0187589F4FDC0173
:100EF0008D919C91FC01828D938DA48DB58DFE0109
:100F00003B960F2EFAE0AF2EF1E0BF2EF02D6701D9
:100F1000780189019A01AC01BD01CF010E948A16B6
:100F2000882361F09E01255F3F4FCE0187589F4F78
:100F3000DC018D919C91B9010E945F060000C458AC
:100F4000DF4F0FB6F894DEBF0FBECDBFDF91CF915C
:100F50001F910F91FF90EF90DF90CF90BF90AF90D7
:100F60000895AF92BF92CF92DF92EF92FF920F93CC
:100F70001F93CF93DF93CDB7DEB7C058D1090FB61B
:100F8000F894DEBF0FBECDBF9E0123583F4FD9015D
:100F90008D939C93CE0181589F4FFC017183608398
:100FA000FE013E969E01265F3F4FAE014A5F5F4FB6
:100FB000BE016B5F7F4FCE0181589F4FDC018D9149
:100FC0009C918F010E94EA04882309F483C0CE011A
:100FD0000F960E94AC19CE0183589F4FFC0180816F
:100FE0009181FC01828D938DA48DB58DBC01CD01C5
:100FF0000E943104982F81E08927882389F1CE014E
:1010000083589F4FDC018D919C91FC0186899789C3
:10101000A08DB18DBC01CD010E943104982F81E0DB
:1010200089278823E9F0CE0183589F4FDC018D91F9
:101030009C91FC01828D938DA48DB58D9E012358CA
:101040003F4FF90120813181F90126893789408D8F
:10105000518DBC01CD010E947D0DDC01CB0104C08E
:1010600088E29BE6AEE6BEEC89839A83AB83BC83C1
:10107000EE80FF8008851985CE0183589F4FDC01E3
:101080008D919C91FC01828D938DA48DB58D2981CC
:101090003A814B815C81FE013F960F2EFDE0AF2E21
:1010A000F1E0BF2EF02D6701780189019A01AC01B2
:1010B000BD01CF010E94F615882361F09E01215FDA
:1010C0003F4FCE0183589F4FDC018D919C91B90118
:1010D0000E945F060000C058DF4F0FB6F894DEBFD5
:1010E0000FBECDBFDF91CF911F910F91FF90EF9079
:1010F000DF90CF90BF90AF9008958F929F92AF9264
:10110000BF92CF92DF92EF92FF920F931F93CF93F4
:10111000DF93CDB7DEB7C557D1090FB6F894DEBF60
:101120000FBECDBF9E012E583F4FD9018D939C938A
:10113000CE018C589F4FFC01718360831982CE01D0
:101140008E589F4FDC018D919C919C01265D3F4FF5
:10115000CE018E589F4FFC0180819181AC014A5D88
:101160005F4FFE013396BE016E5F7F4FCE018C58FC
:101170009F4FDC018D919C918F010E94180588235F
:1011800009F457C0CE0104960E94AC190E940F12B8
:10119000DC01CB019E012E583F4FF90120813181A6
:1011A000225C3F4FF90180839183A283B3838B81BB
:1011B000823011F481E08983CE018E589F4FDC018B
:1011C0008D919C91FC0186A097A0A0A4B1A4CE0112
:1011D0008E589F4FDC018D919C91FC0182A593A5B7
:1011E000A4A5B5A520EE3EE245E652E4BC01CD0142
:1011F0000E94630EDC01CB01AC01BD01CE0104965F
:101200000F2EF0E1CF2EF1E0DF2EF02D85017401DD
:1012100029810E948717882361F09E012C5F3F4F30
:10122000CE018E589F4FDC018D919C91B9010E9497
:101230005F060000CB58DF4F0FB6F894DEBF0FBE3D
:10124000CDBFDF91CF911F910F91FF90EF90DF9075
:10125000CF90BF90AF909F908F9008954F925F92E4
:101260006F927F928F929F92AF92BF92CF92DF92B6
:10127000EF92FF920F931F93CF93DF93CDB7DEB71B
:10128000C857D1090FB6F894DEBF0FBECDBF9E017F
:1012900021593F4FF90191838083CE0181599F4F9E
:1012A000FC0180819181885B9F4FFC01C080D180CF
:1012B000E280F3800E940F12DC01CB018C159D05AA
:1012C000AE05BF05B0F0CE0181599F4FFC01808172
:1012D0009181FC0182859385A485B585BC01CD01F2
:1012E0000E943104982F81E08927882311F081E042
:1012F00001C080E0882309F4B2C0CE0101960E94AB
:10130000AC19CE0181599F4FFC0180819181FC0174
:10131000E688F788008D118DCE0181599F4FFC0121
:10132000808191818E5B9F4FFC01808191819C0126
:1013300040E050E0CE0181599F4FFC0180819181B6
:10134000FC0182A193A1A4A1B5A1BE0161597F4F67
:10135000FB0160817181FB01A68CB78CC0A0D1A07C
:10136000BE0161597F4FFB0160817181FB01668481
:10137000778480889188E5966CAE7DAE8EAE9FAE08
:10138000E597BE0161597F4FFB0160817181FB01CF
:101390006284738484849584E9966CAE7DAE8EAE4F
:1013A0009FAEE997BE0161597F4FFB01608171815A
:1013B0006C5B7F4FFB0140805180628073806AE0EC
:1013C00071E0672F6F936AE071E06F93612F6F9305
:1013D000602F6F936F2D6F936E2D6F93652F6F93AB
:1013E000642F6F93632F6F932F932B2F2F932A2F9D
:1013F0002F93292F2F938F9345015601E596CCAC5F
:10140000DDACEEACFFACE597E9960CAD1DAD2EADB5
:101410003FADE997B301A201CE0101960E949E144F
:101420002DB73EB7225F3F4F0FB6F894DEBF0FBE19
:10143000CDBF882361F0CE0181599F4FFC0180818F
:1014400091819E012F5F3F4FB9010E945F06CE013F
:1014500081599F4FFC01808191810E949504000079
:10146000C858DF4F0FB6F894DEBF0FBECDBFDF9177
:10147000CF911F910F91FF90EF90DF90CF90BF9091
:10148000AF909F908F907F906F905F904F90089556
:10149000CF93DF9300D0CDB7DEB79A83898323E55E
:1014A00031E089819A81FC013183208389819A818D
:1014B0000E94550480E090E0892B21F089819A8177
:1014C0000E9485100F900F90DF91CF910895CF93D8
:1014D000DF9300D0CDB7DEB79A83898389819A8163
:1014E0000E94480A89819A810E9485100F900F906E
:1014F000DF91CF910895CF93DF9300D000D000D03B
:10150000CDB7DEB79A8389834B835C836D837E83FB
:101510008B819C81AD81BE81E981FA8120E0AC01A3
:10152000BD01CF010E94A90F000026960FB6F894C6
:10153000DEBF0FBECDBFDF91CF910895CF93DF9374
:10154000CDB7DEB728970FB6F894DEBF0FBECDBF7C
:101550009A8389834B835C836D837E8338872F8353
:101560002DE531E089819A81FC0131832083298135
:101570003A818B819C81AD81BE81F90186839783FD
:10158000A087B18789819A81FC01138212828981A7
:101590009A81FC01158214828F819885892B39F0FC
:1015A00029813A818F819885B9010E94C135000057
:1015B00028960FB6F894DEBF0FBECDBFDF91CF9156
:1015C0000895CF93DF9300D01F92CDB7DEB79A83F3
:1015D00089836B8389819A812B81FC01248300009C
:1015E0000F900F900F90DF91CF910895CF93DF93DD
:1015F00000D000D000D0CDB7DEB79A8389837C833A
:101600006B835E834D8389819A812B813C8140E08D
:1016100050E0BA010E949E0A23E531E089819A8157
:10162000FC013183208389819A81825B9F4FFC0179
:101630001182108289819A81845B9F4F2D813E8126
:10164000FC013183208388E29BE6AEE6BEEC298173
:101650003A81F90182879387A487B58788E29BE660
:10166000AEE6BEEC29813A81F90186879787A08B87
:10167000B18B88E29BE6AEE6BEEC29813A81F901A6
:10168000828B938BA48BB58B88E29BE6AEE6BEEC97
:1016900029813A81F901868B978BA08FB18F88E2DF
:1016A0009BE6AEE6BEEC29813A81F901828F938FE9
:1016B000A48FB58F88E29BE6AEE6BEEC29813A8125
:1016C000F901868F978FA0A3B1A388E29BE6AEE6CF
:1016D000BEEC29813A81F90182A393A3A4A3B5A307
:1016E00088E29BE6AEE6BEEC29813A812C5B3F4F57
:1016F000F90180839183A283B38389819A818E5B70
:101700009F4F2FEF3FEFFC013183208389819A8126
:10171000FC0112AE13AE14AE15AE0E940F12DC0126
:10172000CB0188519C4FAF4FBF4F29813A81285B35
:101730003F4FF90180839183A283B38389819A818A
:10174000FC0116A617A610AA11AA89819A81FC018C
:1017500012AA13AA14AA15AA89819A81FC0116AAB1
:1017600017AA10AE11AE89819A81CE96FC01108223
:10177000118212821382000026960FB6F894DEBF03
:101780000FBECDBFDF91CF910895CF93DF9300D0EF
:1017900000D0CDB7DEB70E942504DC01CB018983E0
:1017A0009A83AB83BC8389819A81AB81BC81892B6D
:1017B0008A2B8B2B29F089819A81AB81BC8104C053
:1017C0008FE392E4AFE0B0E0BC01CD010F900F9049
:1017D0000F900F90DF91CF9108958F92AF92BF92AB
:1017E000CF92EF92FF920F931F93CF93DF93CDB7DA
:1017F000DEB7A5970FB6F894DEBF0FBECDBF40E0B1
:1018000052EC61E070E083E893E00E947B0A68EEAE
:1018100073E080E090E00E9440120E94C50BDC0162
:10182000CB0189839A83AB83BC838C818F938B811B
:101830008F938A818F9389818F9383E191E0892FA0
:101840008F9383E191E08F931F9280E28F93CE017B
:101850000596292F2F938F930E942C668DB79EB7E4
:101860000A960FB6F894DEBF0FBECDBF8091CE02B0
:101870009091CF02BE016B5F7F4F1F921F92882411
:101880008A94AA24AA94BA2CCC24CA940F2EF7E1E5
:10189000EF2EF1E0FF2EF02D0CE211E021E431E01B
:1018A00048E750E00E946C2C0F900F90E091CE0220
:1018B000F091CF0289819A81AB81BC81A12CB12C9E
:1018C0006894CC24C2F80F2EFEEFEF2EF7E0FF2E27
:1018D000F02D09E122E8AC01BD01CF010E94C42A2C
:1018E0008091CE029091CF0261E00E94E10A809146
:1018F000CE029091CF0249E162E00E94722D809168
:10190000CE029091CF0240E050E068EA71E00E9480
:10191000222D8091CE029091CF0240E050E06CEAFF
:1019200071E00E944A2D8091CE029091CF0263E334
:1019300073E00E94C1358091CE029091CF020E9447
:10194000B64440E063E873E080ED92E00E94D61276
:1019500080ED92E00E94DE120000A5960FB6F8948A
:10196000DEBF0FBECDBFDF91CF911F910F91FF90D2
:10197000EF90CF90BF90AF908F900895CF93DF936B
:1019800000D000D0CDB7DEB769837A838B839C8388
:1019900000000F900F900F900F90DF91CF9108955E
:1019A000CF93DF93CDB7DEB760E070E0CB010E944C
:1019B000BE0C8091CE029091CF020E94654D83E3D0
:1019C00093E00E94880583E893E00E94EB0C0000FE
:1019D000DF91CF910895CF93DF9300D0CDB7DEB7DD
:1019E0009A83898389819A81FC01808191810696FD
:1019F000FC012081318189819A81F901099521E0D9
:101A0000892B09F420E0222371F089819A81FC015D
:101A1000808191810896FC012081318189819A81A0
:101A2000F9010995DFCF00000F900F90DF91CF9162
:101A300008950F931F93CF93DF9300D000D0CDB7BD
:101A4000DEB79A8389837C836B8389819A8101972E
:101A500019F58B819C810196F9F486E390E00E9450
:101A600081108C01C8010E947F5CC8019093CF0255
:101A70008093CE0240E060E070E080ED92E00E9452
:101A8000B4128091CE029091CF0240ED52E0BC01A1
:101A900083E393E00E94F60A89819A81892B41F4BD
:101AA0008B819C81019621F483E393E00E94480A94
:101AB00000000F900F900F900F90DF91CF911F912A
:101AC0000F910895CF93DF93CDB7DEB76FEF7FEF20
:101AD00081E090E00E94190DDF91CF910895CF939E
:101AE000DF93CDB7DEB76FEF7FEF80E090E00E942D
:101AF000190DDF91CF9108955058BB27AA270E9456
:101B0000940D0C94290E0E941B0E38F00E94220E98
:101B100020F039F49F3F19F426F40C94180E0EF4BB
:101B2000E095E7FB0C94120EE92F0E943A0E58F351
:101B3000BA17620773078407950720F079F4A6F5B2
:101B40000C945C0E0EF4E0950B2EBA2FA02D0B0119
:101B5000B90190010C01CA01A0011124FF27591BF2
:101B600099F0593F50F4503E68F11A16F040A22FF8
:101B7000232F342F4427585FF3CF46953795279569
:101B8000A795F0405395C9F77EF41F16BA0B620B68
:101B9000730B840BBAF09150A1F0FF0FBB1F661FAF
:101BA000771F881FC2F70EC0BA0F621F731F841FF2
:101BB00048F4879577956795B795F7959E3F08F018
:101BC000B0CF9395880F08F09927EE0F97958795DA
:101BD00008950E94EE0D08F481E00895990F000821
:101BE000550FAA0BE0E8FEEF16161706E807F907EF
:101BF000C0F012161306E407F50798F0621B730B8A
:101C0000840B950B39F40A2661F0232B242B252B0A
:101C100021F408950A2609F4A140A6958FEF811DAD
:101C2000811D089597F99F6780E870E060E008954E
:101C30009FEF80EC089500240A94161617061806E4
:101C40000906089500240A941216130614060506C0
:101C50000895092E0394000C11F4882352F0BB0F51
:101C600040F4BF2B11F460FF04C06F5F7F4F8F4FB4
:101C70009F4F089557FD9058440F551F59F05F3FEF
:101C800071F04795880F97FB991F61F09F3F79F09E
:101C900087950895121613061406551FF2CF469520
:101CA000F1DF08C0161617061806991FF1CF8695A2
:101CB0007105610508940895E894BB276627772786
:101CC000CB0197F908950E94760E0C94290E0E947C
:101CD0001B0E38F00E94220E20F0952311F00C9478
:101CE000120E0C94180E11240C945D0E0E943A0EE4
:101CF00070F3959FC1F3950F50E0551F629FF0015F
:101D0000729FBB27F00DB11D639FAA27F00DB11D77
:101D1000AA1F649F6627B00DA11D661F829F222700
:101D2000B00DA11D621F739FB00DA11D621F839F87
:101D3000A00D611D221F749F3327A00D611D231F5D
:101D4000849F600D211D822F762F6A2F11249F57AB
:101D500050409AF0F1F088234AF0EE0FFF1FBB1FAE
:101D6000661F771F881F91505040A9F79E3F51056D
:101D700080F00C94120E0C945D0E5F3FE4F3983EDD
:101D8000D4F3869577956795B795F795E7959F5F17
:101D9000C1F7FE2B880F911D9695879597F90895A9
:101DA0000E94D665FC01918D228D892F90E0805C88
:101DB0009F4F821B91098F7399270895FC01918D84
:101DC000828D981731F0828DE80FF11D858D90E09E
:101DD00008958FEF9FEF0895FC01918D828D9817E4
:101DE00061F0828DDF01A80FB11D5D968C91928DFF
:101DF0009F5F9F73928F90E008958FEF9FEF0895FC
:101E0000FC01538D448D252F30E0842F90E0821B00
:101E1000930B541710F0CF960895019708958AE315
:101E200090E1892B49F080E090E0892B29F00E9415
:101E30003A1081110C9400000895FC01848DDF019B
:101E4000A80FB11DA35ABF4F2C91848D90E001962D
:101E50008F739927848FA689B7892C93938D848D4E
:101E6000981306C00288F389E02D80818D7F8083DE
:101E70000895EF92FF920F931F93CF93DF93EC019E
:101E800081E0888F2B8D9C8D29130DC0EA89FB89F9
:101E900020819091C90026952170281721F09295F4
:101EA0009170981325C0F62E0B8D10E00F5F1F4F19
:101EB0000F731127E02E8C8DE8120CC00FB607FCB3
:101EC000FACFE889F989808181FFF5CFCE010E94A0
:101ED0001D0FF1CF8B8DFE01E80FF11DE35AFF4F6F
:101EE000F0820B8FEA89FB8980818260808306C043
:101EF000808182608083EE89FF89608381E090E049
:101F0000DF91CF911F910F91FF90EF900895CF93A4
:101F1000DF93EC01888D8823C9F0EA89FB898081F1
:101F200081FD05C0A889B9898C9181FD0FC00FB6CC
:101F300007FCF5CF808181FFF2CFA889B9898C9108
:101F400081FFEDCFCE010E941D0FE7CFDF91CF9132
:101F500008951F93CF93DF93EC01122F88E88093AD
:101F6000CC009A01AB0183E0220F331F441F551FA1
:101F70008A95D1F760E074E284EF90E00E944364B8
:101F800021503109EC85FD853083EE85FF85208366
:101F9000188E1F608FE08093C900EC89FD89108343
:101FA0001A8E198E1C8E1B8EEA89FB8980818160B6
:101FB0008083EA89FB8980818D7F8083DF91CF9147
:101FC0001F9108951F920F920FB60F9211242F9315
:101FD0003F934F935F936F937F938F939F93AF93B1
:101FE000BF93EF93FF938091C90080FF15C0E091EC
:101FF0009903F0919A03908180919C038F5F8F7376
:1020000020919D03821741F0E0919C03F0E0ED5791
:10201000FC4F958F80939C038091C90081FF19C06C
:1020200090919E0380919F03981729F083E893E095
:102030000E941D0F0EC0E0919503F09196038081E0
:102040008D7F8083E0919303F0919403808182607F
:102050008083FF91EF91BF91AF919F918F917F917D
:102060006F915F914F913F912F910F900FBE0F9005
:102070001F90189583E893E00E94D20E21E0892BEF
:1020800009F420E0822F0895E3E8F3E0138212823E
:1020900088EE93E0A0E0B0E084839583A683B783C5
:1020A00087E691E0918380838EEC90E0958784872A
:1020B0008DEC90E09787868789EC90E0918B808B00
:1020C0008AEC90E0938B828B88EC90E0958B848BEC
:1020D00082ED90E0978B868B118E128E138E148E6C
:1020E000089508950E947C120E9471100E94ED0BC9
:1020F000CFE0DFE00E94D00C2097E1F30E940F0FA9
:10210000F9CF0C94B5640C94B5640C944D65CF92E2
:10211000DF92EF92FF920F931F93CF93DF936C01A7
:102120007A018B01C0E0D0E0CE15DF0581F0D80147
:102130006D918D01D601ED91FC910190F081E02D22
:10214000C6010995892B11F02196EECF7E01C701BA
:10215000DF91CF911F910F91FF90EF90DF90CF9083
:1021600008956115710579F0FB0101900020E9F7F0
:102170003197AF01461B570BDC01ED91FC910480B8
:10218000F581E02D099480E090E00895EF92FF92B0
:102190000F931F93CF93DF938C017B01C0E0D0E0BE
:1021A000F701EC0FFD1F6491662361F0D801ED91FA
:1021B000FC910190F081E02DC8010995892B11F067
:1021C0002196EECFCE01DF91CF911F910F91FF901D
:1021D000EF900895DC01ED91FC910190F081E02DEC
:1021E000099468E871E00C94B1100F931F93CF939A
:1021F000DF93EC010E94C6108C01CE010E94F11009
:10220000800F911FDF91CF911F910F9108958F92B1
:102210009F92AF92BF92EF92FF920F931F93CF9333
:10222000DF93CDB7DEB7A1970FB6F894DEBF0FBE30
:10223000CDBF7C01FA01CB0119A2223008F42AE0BB
:102240008E010F5D1F4F822E912CA12CB12CBF014E
:10225000A50194010E944364F901CA0101501109CA
:102260006A3010F4605D01C0695CD8016C93232B67
:10227000242B252B61F7B801C7010E94B110A1964C
:102280000FB6F894DEBF0FBECDBFDF91CF911F9187
:102290000F91FF90EF90BF90AF909F908F90089517
:1022A0002115310541F4DC01ED91FC910190F081A3
:1022B000E02D642F09940C9407119A01462F50E0E9
:1022C00060E070E00C945011CF92DF92EF92FF9299
:1022D0000F931F93CF93DF932115310581F4DC0118
:1022E000ED91FC910190F081E02D642FDF91CF9171
:1022F0001F910F91FF90EF90DF90CF9009942A30BB
:10230000310501F577FF1DC06A017B01EC016DE22B
:102310000E94EA108C0144275527BA014C195D0927
:102320006E097F092AE0CE010E940711800F911FDC
:10233000DF91CF911F910F91FF90EF90DF90CF90A1
:1023400008952AE0DF91CF911F910F91FF90EF90B8
:10235000DF90CF900C9407119A01AB01770F660BB9
:10236000770B0C9464110F931F93CF93DF93EC01C1
:102370000E94AC118C01CE010E94F110800F911FC0
:10238000DF91CF911F910F9108951F920F920FB679
:102390000F9211242F933F938F939F93AF93BF93EB
:1023A0008091210490912204A0912304B0912404EF
:1023B0003091200423E0230F2D3720F40196A11D36
:1023C000B11D05C026E8230F0296A11DB11D209363
:1023D00020048093210490932204A0932304B093BB
:1023E00024048091250490912604A0912704B091A3
:1023F00028040196A11DB11D809325049093260405
:10240000A0932704B0932804BF91AF919F918F911F
:102410003F912F910F900FBE0F901F9018952FB7DF
:10242000F89460912104709122048091230490918A
:1024300024042FBF08953FB7F8948091250490910C
:102440002604A0912704B091280426B5A89B05C0B6
:102450002F3F19F00196A11DB11D3FBFBA2FA92F23
:10246000982F8827820F911DA11DB11DBC01CD01A0
:1024700042E0660F771F881F991F4A95D1F708958C
:102480008F929F92AF92BF92CF92DF92EF92FF9284
:102490006B017C010E941B124B015C01C114D10431
:1024A000E104F10401F10E94B3120E941B12DC014D
:1024B000CB0188199909AA09BB09883E9340A10557
:1024C000B10560F321E0C21AD108E108F10888EEF5
:1024D000880E83E0981EA11CB11CC114D104E10434
:1024E000F10419F7DBCFFF90EF90DF90CF90BF9012
:1024F000AF909F908F900895789484B5826084BD4A
:1025000084B5816084BD85B5826085BD85B58160F7
:1025100085BDEEE6F0E0808181608083E1E8F0E057
:102520001082808182608083808181608083E0E886
:10253000F0E0808181608083EAE7F0E08081846060
:1025400080838081826080838081816080838081BC
:102550008068808380E280937B00E8ECF0E08081FB
:1025600080688083089508952FEF3FEFFC01338347
:102570002283EB5AFF4F11821082329610823196DD
:10258000118210823296118210823296118210824C
:10259000329623EF30E0318320833396118210820C
:1025A00031974083FC01718360830895FC01E05AF8
:1025B000FF4F4083FC017183608308950F931F9345
:1025C000CF93DF93FC01208131818C01045A1F4F8E
:1025D000232B39F0F80120813181232B11F081E088
:1025E00027C0EC01F80180819181892B51F4FE0113
:1025F000E25AFF4F808191810E948310F8019183FC
:102600008083FE01EB5AFF4F1182108232961082B6
:1026100031961182108232961182108288819981BE
:10262000892B29F0F80180819181892BC1F680E006
:10263000DF91CF911F910F910895DC018D919C91B5
:10264000DC01ED91FC910280F381E02D099521E000
:10265000181619060CF020E0822F0895AF92BF9251
:10266000CF92DF92EF92FF920F931F93CF93DF935E
:10267000EC010E94DE128823E9F15E0188E5A80ED4
:10268000B11C8E01065A1F4F6E01ECE5CE0ED11C17
:102690007E01FEE5EF0EF11CF50120813181F8018C
:1026A000808191812817390729F1CE010E941D13DD
:1026B000882301F188819981F601A081B181F80117
:1026C00020813181A20FB31FFC0120813181F901EA
:1026D000208131816C91F9010995F8018081918106
:1026E0000196F701608171810E941B64F80191835A
:1026F0008083D2CFDF91CF911F910F91FF90EF9008
:10270000DF90CF90BF90AF9008958F929F92AF923D
:10271000BF92CF92DF92EF92FF920F931F93CF93CE
:10272000DF93EC018B010E942E130115110509F4B2
:1027300068C07E0188E5E80EF11C6E01AAE5CA0EAC
:10274000D11CF70120813181D6018D919C912817F0
:10275000390779F448015401A01AB10ACE010E9448
:102760001D13882341F0F40161914F0161114BC0A9
:1027700002C0A12CB12CF801EA0DFB1D8081882339
:1027800009F43FC0D8010D900020E9F71197CD0161
:10279000801B910BD7012D913C918E01025A1F4F46
:1027A000D8016D917C918A199B09D6014D915C915C
:1027B000460F571F421B530B8417950788F5C90115
:1027C00001960E941B64C45ADF4F61916623C9F0D1
:1027D000D6014D915C9184179507F9F0A880B980D6
:1027E000D7014D915C91D501A40FB51F6C93D70112
:1027F0008D939C930196D8016D917C910E941B64EE
:10280000E4CF81E00EC088819981DC01ED91FC91DB
:102810000190F081E02D09959ECFF701318320834F
:1028200080E0DF91CF911F910F91FF90EF90DF90AB
:10283000CF90BF90AF909F908F9008958F929F926E
:10284000AF92BF92CF92DF92EF92FF920F931F93BE
:10285000CF93DF93CDB7DEB727970FB6F894DEBFDF
:102860000FBECDBF7C018B010E94DE12882309F4CC
:1028700052C0CE0101966C0187E0F60111928A9553
:10288000E9F7F801EA5AFF4F80818983B601C70151
:102890000E948513B8016C5F7F4FC7010E948513AA
:1028A000B801695F7F4FC7010E948513A12CB12C2D
:1028B0004801FBE68F0E911CF401808190E0A81680
:1028C000B9068CF464ED71E0C7010E9485136A2D8E
:1028D000C8010E94221ABC01C7010E948513FFEFA4
:1028E000AF1ABF0AE9CFF801E459FF4F80811F9268
:1028F0008F9383E891E09F938F93DF92CF920E9412
:102900005C66B601C7010E9485130F900F900F906F
:102910000F900F900F9027960FB6F894DEBF0FBE62
:10292000CDBFDF91CF911F910F91FF90EF90DF907E
:10293000CF90BF90AF909F908F9008952F923F922D
:102940004F925F926F927F928F929F92AF92BF92BF
:10295000CF92DF92EF92FF920F931F93CF93DF936B
:10296000CDB7DEB760970FB6F894DEBF0FBECDBF10
:102970001C014D835E836F83788709871A872B87B5
:102980003C878DA19EA1AFA1B8A589839A83AB8313
:10299000BC8389A59AA5ABA5BCA58D879E87AF876B
:1029A000B88B4DA45EA46FA478A809A91AA928E23F
:1029B0003BE64EE65EEC69817A818B819C810E94C8
:1029C000E90D8823F9F020E030E0A90169817A81DE
:1029D0008B819C810E94E90D87FF14C028E23BE6B1
:1029E0004EE65EECC501B4010E94E90D8823F1F0CA
:1029F0002BED3FE049E450E4C501B4010E947D0D98
:102A00004B015C0128E23BE64EE65EECC501B401F9
:102A10000E94E90D882351F02BED3FE049EC50E492
:102A2000C501B4010E94745D4B015C0124E2A80160
:102A300064EB71E0C1010E94AE19882309F4BCC0A7
:102A400024EA31E04D815E816F817885C1010E9469
:102A5000BB1A882309F4B0C028E23BE64EE65EECE0
:102A60006D817E818F8198850E94E90D882331F0E8
:102A700062EA71E0C1010E942E1803C0C1010E94E8
:102A800005182BEA31E049855A856B857C85C101A3
:102A90000E942B1B882309F48FC02BEA31E0B70179
:102AA000A601C1010E94A41B882309F485C0E090FF
:102AB0000601F0900701C12CD12C05EE1FEC28EF88
:102AC0003FE349815A816B817C81C1010E94951845
:102AD000882309F471C0E0900601F090070100EE30
:102AE0001EE225E632E4B501A401C1010E94951859
:102AF000882309F461C04D855E856F857889C101A1
:102B00000E94B91C882309F457C028E23BE64EE630
:102B10005EECC301B2010E94E90D882349F1E09007
:102B20000601F090070120E030E0A901C301B201E5
:102B30000E94CB5DB301A20187FD7058C12CD12C3E
:102B400000EE1EE225E632E4C1010E9495188823BA
:102B500099F120E030E0A901C301B2010E94CB5DF0
:102B600087FD03C068EB71E00CC062EC71E009C046
:102B70006AE871E0C1010E942E188823E9F06AE832
:102B800071E0C10160960FB6F894DEBF0FBECDBFF5
:102B9000DF91CF911F910F91FF90EF90DF90CF9039
:102BA000BF90AF909F908F907F906F905F904F906D
:102BB0003F902F900C942E1880E060960FB6F894FA
:102BC000DEBF0FBECDBFDF91CF911F910F91FF9060
:102BD000EF90DF90CF90BF90AF909F908F907F90BD
:102BE0006F905F904F903F902F9008954F925F921B
:102BF0006F927F92AF92BF92CF92DF92EF92FF924D
:102C00000F931F93CF93DF93CDB7DEB72A970FB6FD
:102C1000F894DEBF0FBECDBF9A87898749835A8358
:102C20006B837C830D831E832F83388726013701B6
:102C3000A50124E260EC71E00E94AE19811102C08E
:102C400080E053C0E0900601F09007013AE9C32EFE
:102C500031E0D32E00EE1EE225E632E449815A81AE
:102C60006B817C8189859A850E949518882341F320
:102C7000E0900601F090070125EFC22E21E0D22E50
:102C800000EE1EE225E632E44D815E816F8178859B
:102C900089859A850E949518882391F2E090060113
:102CA000F09007019EEBC92E91E0D92E05EE1FECA6
:102CB00028EF3FE3B301A20189859A850E94951808
:102CC000882309F4BDCFE0900601F090070182EE61
:102CD000C82E81E0D82E06E616E626E630E4B301DB
:102CE000A20189859A850E9495182A960FB6F894B4
:102CF000DEBF0FBECDBFDF91CF911F910F91FF902F
:102D0000EF90DF90CF90BF90AF907F906F905F90EB
:102D10004F9008954F925F926F927F92AF92BF92C1
:102D2000CF92DF92EF92FF920F931F93CF93DF9397
:102D3000CDB7DEB72A970FB6F894DEBF0FBECDBF72
:102D40009A8789874D835E836F83788709831A8387
:102D50002B833C8326013701A50124E267EF71E054
:102D60000E94AE19882309F4BCC0E0900601F090DF
:102D70000701C12CD12C00EE1EE225E632E44D8184
:102D80005E816F81788589859A850E949518882350
:102D900009F4A7C028E23BE64EE65EEC69817A8141
:102DA0008B819C810E94E90D882309F442C0E09048
:102DB0000601F090070120E030E0A90169817A81E5
:102DC0008B819C810E94CB5D49815A816B817C8182
:102DD00087FD7058C12CD12C00EE1EE225E632E4AE
:102DE00089859A850E949518882309F47AC020E085
:102DF00030E0A90169817A818B819C810E94CB5D41
:102E000087FD14C068EB71E089859A850E942E18B1
:102E1000882309F466C028E23BE64EE65EECC30177
:102E2000B2010E94E90D811110C039C062EC71E05D
:102E3000EBCF6AE871E089859A850E942E18882375
:102E400009F44FC06AE871E0DFCFE0900601F0902E
:102E5000070120E030E0A901C301B2010E94CB5D6F
:102E6000B301A20187FD7058C12CD12C00EE1EE2E7
:102E700025E632E489859A850E949518882389F190
:102E800020E030E0A901C301B2010E94CB5D87FDC3
:102E900003C068EB71E00DC062EC71E00AC06AE843
:102EA00071E089859A850E942E188823D1F06AE8FE
:102EB00071E089859A852A960FB6F894DEBF0FBE19
:102EC000CDBFDF91CF911F910F91FF90EF90DF90D9
:102ED000CF90BF90AF907F906F905F904F900C9489
:102EE0002E1880E02A960FB6F894DEBF0FBECDBF35
:102EF000DF91CF911F910F91FF90EF90DF90CF90D6
:102F0000BF90AF907F906F905F904F9008953F92E9
:102F10004F925F926F927F928F929F92AF92BF92E9
:102F2000CF92DF92EF92FF920F931F93CF93DF9395
:102F3000EC012A013B01322E47015801A60124E28F
:102F400065E072E00E94AE19882309F44BC0E0905E
:102F50000601F0900701C12CD12C00E010E020E820
:102F60003FE3B301A201CE010E9495188823D1F15D
:102F7000332019F063E072E002C06AE971E0CE012B
:102F80000E942E18882371F1E0900601F09007014D
:102F9000C12CD12C00E010E020E83FE3B501A401F2
:102FA000CE010E9495188823E9F065EF71E0CE010B
:102FB0000E942E188823B1F062EA71E0CE01DF9101
:102FC000CF911F910F91FF90EF90DF90CF90BF9026
:102FD000AF909F908F907F906F905F904F903F90B9
:102FE0000C942E1880E0DF91CF911F910F91FF90EC
:102FF000EF90DF90CF90BF90AF909F908F907F9099
:103000006F905F904F903F900895CF93DF93EC01C6
:10301000CB5ADF4F28812135E8F4DC01A559BF4F99
:103020003C913431B8F4FC01E20FF11D1482FC0133
:10303000E459FF4F50814CE245274083830F911D97
:10304000FC01E95AFF4F20832F5F28833F5F3C93A9
:1030500081E001C080E0DF91CF910895AF92BF92EF
:10306000CF92DF92EF92FF920F931F93CF93DF9354
:103070009C018C010B5A1F4FD8019C91913510F087
:1030800080E048C0E901C559DF4F48814431C0F7AD
:103090005901BCE6AB0EB11CF5015081F901E90FF5
:1030A000F11D14828CE28527F901E40FF11DE95A24
:1030B000FF4F908361157105B1F0FB017F01E61AA6
:1030C000F70A903591F06F015081552371F0790125
:1030D000E90EF11CD70114965C933196D6015C91F0
:1030E00085279F5FEBCFE12CF12CF901E90FF11D52
:1030F00014826115710531F0FB01EE0DFF1D208179
:103100002111BECF9F5FF80190834F5F4883D501A7
:103110008C9381E0DF91CF911F910F91FF90EF9001
:10312000DF90CF90BF90AF9008952F923F924F9233
:103130005F926F927F928F929F92AF92BF92CF9247
:10314000DF92EF92FF920F931F93CF93DF93CDB750
:10315000DEB76E970FB6F894DEBF0FBECDBF1C0171
:103160004A015B0128013901FB8EEA8E28E23BE629
:103170004EE65EECC501B4010E94E90D811108C064
:10318000C1010E940518C114D10409F0AEC0B3C03A
:1031900091012B5A3F4F3F8B2E8BF9018081813556
:1031A00010F080E0A8C0910125593F4F398F288F3A
:1031B000F90190819431A8F72F5F3F4F3D8F2C8FFD
:1031C000F901F081FE8FF101E90FF11DE95AFF4F7E
:1031D00080836EE270E08A8D9B8D0E9409667C017F
:1031E000009701F1019621F00E94DB658D8B01C0F3
:1031F0001D8AF7018F012A8D3B8D2E173F0718F48A
:1032000082918532B9F70E151F0589F0C8010E9419
:10321000DB65F82EEE24E394F8018081803351F0D1
:10322000E12C08C0E12CFF24F3941D8A03C0E12C9B
:10323000FF24F394A3019201C501B4010E94630E1F
:103240009E012F5F3F4F590189012D894F2D0E940B
:103250009564F50101900020E9F731978F010A1973
:103260001B09EE89FF89808190E021E530E0281B71
:10327000390B021713078CF4EE2039F0F50120E327
:103280003081303211F42193FBCFB50191012C5FD5
:103290003F4F820F931F0E941D66EE89FF89908128
:1032A000E92FF0E020E530E02E1B3F0B201731071F
:1032B0000CF477CF8CE22E8D82273496E20DF31D2D
:1032C0002191222311F08227FBCF9F5F090FEE8906
:1032D000FF890083E88DF98D90819F5F9083EC8D4D
:1032E000FD8D8083C114D10429F0B601C1010E9473
:1032F0002E1801C081E06E960FB6F894DEBF0FBEA7
:10330000CDBFDF91CF911F910F91FF90EF90DF9094
:10331000CF90BF90AF909F908F907F906F905F9075
:103320004F903F902F900895FC01DC01A359BF4FAF
:103330001C921482168258971C9256961C9254978F
:103340001C92108211821282138255961C92EA5AA4
:10335000FF4F80E2808308950C949419AF92BF923E
:10336000CF92DF92EF92FF920F931F93CF93DF9351
:10337000EC016B017A01B22E0E949419E114F10460
:10338000B9F0F70101900020E9F73197EE19FF0934
:10339000389770F4C114D10459F0F601019000205F
:1033A000E9F731978F010C191D090B30110510F049
:1033B00080E03DC0FE01EA5AFF4FB0820E940F122A
:1033C000688379838A839B83F7018081882351F006
:1033D000D70111969C911197992321F08C83119616
:1033E0008C9102C089E48C838D835E01BCE6AB0EB8
:1033F000B11CF50190818C8189279D81892780836B
:103400001E827E01F7E0EF0EF11CB601C7010E949B
:103410001D66CB5ADF4F0C5F0883F701819188232B
:1034200029F0D5019C9189278C93F8CF81E0DF9119
:10343000CF911F910F91FF90EF90DF90CF90BF90B1
:10344000AF900895FC01E559FF4F2081621770F499
:103450009C012C5F3F4F860F911DFC01E95AFF4FE5
:103460008081A901480F511DCA010895809108016A
:103470009091090108958F929F92AF92BF92CF923F
:10348000DF92EF92FF92CF93DF9300D000D0CDB7C1
:10349000DEB76B017C0128E23BE64EE65EEC0E9463
:1034A000E90D882309F454C020E030E041E655E4FA
:1034B000C701B6010E948B5CAE014F5F5F4F0E9457
:1034C000D05D4B015C0120E030E44CE156E46981C1
:1034D0007A818B819C810E94630E0E94FD5C0E9418
:1034E0002C5D20E030E0A9010E947D0D6B017C0184
:1034F00020E030E040E752E4C501B4010E94630ED1
:10350000AE014F5F5F4F0E94D05D4B015C0120E038
:1035100030E048EC52E469817A818B819C810E9481
:10352000630E0E94FD5C0E942C5DA70196010E9423
:103530007D0D6B017C0120E030E040E752E4C501E5
:10354000B4010E94630EA70196010E947D0D04C084
:1035500068E27BE68EE69EEC0F900F900F900F9046
:10356000DF91CF91FF90EF90DF90CF90BF90AF9021
:103570009F908F900895CF92DF92EF92FF920F93DA
:103580001F93CF93DF93EC017901CB01BA010E9425
:103590003B1AAB01BC01C12CD12C00E010E020E8AB
:1035A0003FE3CE010E949518DF91CF911F910F91BB
:1035B000FF90EF90DF90CF9008958F929F92AF92FF
:1035C000BF92CF92DF92EF92FF92CF93DF9300D022
:1035D00000D0CDB7DEB76B017C0128E23BE64EE6BA
:1035E0005EEC0E94E90D882329F1AE014F5F5F4F29
:1035F000C701B6010E94D05D4B015C0120E030E0C4
:1036000048EC52E469817A818B819C810E94630E2F
:103610006B017C0120E030E040E752E4C501B401D9
:103620000E94630E9B01AC01C701B6010E947D0D93
:103630006B017C01C701B6010F900F900F900F90A6
:10364000DF91CF91FF90EF90DF90CF90BF90AF9040
:103650009F908F9008958F929F92AF92BF92CF923A
:10366000DF92EF92FF920F931F93CF93DF93EC01C2
:103670004A015B01790128E23BE64EE65EECC501BA
:10368000B4010E94E90D811109C0CE010E94051804
:10369000B82ECE010E9405188B2149C0FE01EB5ABD
:1036A000FF4F8081893410F080E041C0FE01E55970
:1036B000FF4F80818331C0F720E030E0A901C501D0
:1036C000B4010E94CB5D87FF04C0C501B4019058CE
:1036D00002C0C501B4010E94DD1AAB01BC01C12CBE
:1036E000D12C00E010E020E83FE3CE010E949518C5
:1036F0008823D1F220E030E0A901C501B4010E9485
:10370000CB5D87FD03C06EEB71E002C066E971E03E
:10371000CE01DF91CF911F910F91FF90EF90DF903D
:10372000CF90BF90AF909F908F900C942E18DF9108
:10373000CF911F910F91FF90EF90DF90CF90BF90AE
:10374000AF909F908F9008958F929F92AF92BF926B
:10375000CF92DF92EF92FF920F931F93CF93DF935D
:10376000EC014A015B01790128E23BE64EE65EECA2
:10377000C501B4010E94E90D811109C0CE010E946A
:103780000518B82ECE010E9405188B2149C0FE01F4
:10379000EB5AFF4F8081893410F080E041C0FE0178
:1037A000E559FF4F80818331C0F720E030E0A90167
:1037B000C501B4010E94CB5D87FF04C0C501B401FF
:1037C000905802C0C501B4010E94DD1AAB01BC01D2
:1037D000C12CD12C00E010E020E83FE3CE010E9494
:1037E00095188823D1F220E030E0A901C501B40189
:1037F0000E94CB5D87FD03C068EB71E002C062EC04
:1038000071E0CE01DF91CF911F910F91FF90EF906A
:10381000DF90CF90BF90AF909F908F900C942E1818
:10382000DF91CF911F910F91FF90EF90DF90CF909C
:10383000BF90AF909F908F900895CF93DF93CDB7B7
:10384000DEB72C970FB6F894DEBF0FBECDBF8EE665
:1038500090E098878F831E8281E08C831B821A827E
:103860001982CE0101960E94460220E831E541E02E
:1038700050E00E94436482E199E3A0E0B0E0BC0123
:10388000CD01621B730B840B950B2C960FB6F8942D
:10389000DEBF0FBECDBFDF91CF910895CF92DF92F3
:1038A000EF92FF920F931F93CF93DF9300D000D03E
:1038B000CDB7DEB76F3F2FEF72078207920709F48B
:1038C0004BC00091290410912A0420912B043091BF
:1038D0002C046B017C01C01AD10AE20AF30AA70189
:1038E000960160E871E581E090E00E94FF636983E2
:1038F0007A838B839C83CE0101960E94FD01FC019B
:103900004581042E000C550B4F5F5F4FA3810A2E9B
:10391000000CBB0B20E137E20E946B6426813781EB
:103920006901E4E9CE1AE8EFDE0A0D2C000CEE087E
:10393000FF08C60ED71EE81EF91E20EDC21A27E0AA
:10394000D20AE108F10824E630E0DA010E946B6453
:103950006C0D7D1D8E1D9F1D0F900F900F900F9071
:10396000DF91CF911F910F91FF90EF90DF90CF905B
:103970000895CF92DF92EF92FF920F931F93CF9310
:10398000DF939C014F3F8FEF58076807780759F482
:10399000C901DF91CF911F910F91FF90EF90DF90C0
:1039A000CF900C940518CB01BA01E9010E944E1C7E
:1039B0000E942C5DAB01BC01C12CD12C87E1E82E0B
:1039C00082E0F82E00E010E020E83FE3CE010E9404
:1039D0009518DF91CF911F910F91FF90EF90DF909D
:1039E000CF9008950E941D1C6093290470932A04AF
:1039F00080932B0490932C0408954F925F926F92C2
:103A00007F928F929F92AF92BF92CF92DF92EF926E
:103A1000FF920F931F93CF93DF9300D0CDB7DEB704
:103A2000FC0183809480A580B680F2E18F16F1EFCF
:103A30009F06F1E0AF06B10409F04DC0270158011F
:103A400049013A018B016C011A821982BE016F5F34
:103A50007F4F0E94FB1EF801808318E2E12E1BE6D7
:103A6000F12E0EE61EEC9E012F5F3F4F47E157EB14
:103A700061ED78E3C6010E942724F301608371831E
:103A8000828393839E012F5F3F4F47E157EB61EDA8
:103A900078E3C6010E94A923F401608371838283C5
:103AA00093839E012F5F3F4F47E157EB61ED78E332
:103AB000C6010E94A923F5016083718382839383E9
:103AC000BE016F5F7F4FC6010E94FB1E8370F20133
:103AD000808381E001C080E00F900F90DF91CF9153
:103AE0001F910F91FF90EF90DF90CF90BF90AF901C
:103AF0009F908F907F906F905F904F9008956F92FE
:103B00007F928F929F92AF92BF92CF92DF92EF926D
:103B1000FF920F931F93CF93DF9300D0CDB7DEB703
:103B2000FC0183809480A580B680F3E08F16F5EFCA
:103B30009F06F1E0AF06B104E9F5580149013A01E9
:103B40008B016C011A821982BE016F5F7F4F0E9448
:103B5000FB1EF801808318E2E12E1BE6F12E0EE633
:103B60001EEC9E012F5F3F4F4AE057ED63E27CE37E
:103B7000C6010E942724F3016083718382839383AB
:103B80009E012F5F3F4F4AE057ED63E27CE3C601A1
:103B90000E942724F4016083718382839383BE0192
:103BA0006F5F7F4FC6010E94FB1E8F70F5018083FF
:103BB00081E001C080E00F900F90DF91CF911F91C5
:103BC0000F91FF90EF90DF90CF90BF90AF909F90BC
:103BD0008F907F906F9008956F927F928F929F92B7
:103BE000AF92BF92CF92DF92EF92FF920F931F930B
:103BF000CF93DF9300D0CDB7DEB7FC0183809480F4
:103C0000A580B680F2E08F16FDEF9F06F1E0AF06CB
:103C1000B104E9F5580149013A018B016C011A829E
:103C20001982BE016F5F7F4F0E94FB1EF8018083E7
:103C300018E2E12E1BE6F12E0EE61EEC9E012F5F30
:103C40003F4F4AE057ED63E27CE3C6010E94272420
:103C5000F30160837183828393839E012F5F3F4FC3
:103C600047E157EB61ED78E3C6010E942724F40198
:103C70006083718382839383BE016F5F7F4FC60130
:103C80000E94FB1E8770F501808381E001C080E007
:103C90000F900F90DF91CF911F910F91FF90EF90B8
:103CA000DF90CF90BF90AF909F908F907F906F905C
:103CB0000895FC01138214821582168212861186E1
:103CC000E651FF4F10821182128213820895CF9223
:103CD000DF92EF92FF92CF93DF93EC016A017B01B9
:103CE000E881F9810190F081E02D09958B819C811B
:103CF000AD81BE81892B8A2B8B2B21F4CB82DC8278
:103D0000ED82FE820E940F12C651DF4F68837983D5
:103D10008A839B83DF91CF91FF90EF90DF90CF90CC
:103D20000895EF920F93CF93DF93EC011A861986D3
:103D300067706A83BA01A9010E94671E0F83E88633
:103D4000C251DF4F1882DF91CF910F91EF9008950C
:103D5000FC0141855285141615062CF46FEF70E0B6
:103D60000B960C9402660895CF92DF92EF92FF9229
:103D70000F931F93CF93DF93EC01842FA901980138
:103D80006701E7E2F2E0F983E883EE24EA94062F84
:103D9000682FCE010E94911EC60101978E3D9105AC
:103DA00010F4DA86C986CE010E94A81E8B819C8100
:103DB000AD81BE81892B8A2B8B2B41F00E940F1283
:103DC000C651DF4F688379838A839B83DF91CF91CC
:103DD0001F910F91FF90EF90DF90CF900895FC011D
:103DE00021853285E20FF31F63872F5F3F4FFC0170
:103DF000328721870895FB0120813181FC014185B3
:103E00005285241735075CF4A9014F5F5F4FFB0112
:103E100051834083FC01E20FF31F838508958FEFE8
:103E200008952F923F924F925F926F927F928F925E
:103E30009F92AF92BF92CF92DF92EF92FF920F9339
:103E40001F93CF93DF93E7016115710519F04115B9
:103E5000510539F4A880B9802A0D3B1D3983288388
:103E600051C0FA011082E881F9817F01E20EF31E50
:103E7000FC01A185B285AE15BF0508F441C07E01E5
:103E800059016A011B012C013A01C0E0D0E010E0A9
:103E90004B01F1E08F1A9108AC16BD06C9F0C815A8
:103EA000D905B8F4B701C2010E94FB1EF30111113C
:103EB00009C0882311F0081303C0108211E003C069
:103EC000808301C010822196FFEF6F1A7F0AE4CF32
:103ED000E501F601EC0FFD1F1082CA15DB0530F479
:103EE000B701C2010E94FB1E2196F7CFCC0DDD1D4C
:103EF000CE018C199D098215930520F41992F8CFF3
:103F000080E001C081E0DF91CF911F910F91FF9080
:103F1000EF90DF90CF90BF90AF909F908F907F9069
:103F20006F905F904F903F902F9008958F929F9247
:103F3000AF92BF92CF92DF92EF92FF920F93CF9307
:103F4000DF935C016B014A017901B9010E94FB1EFC
:103F5000C82FB701C5010E94FB1E813029F0F60170
:103F60001182108280E01AC0D0E02297811491045F
:103F700051F0F601608171810FEF9E01A401C5012E
:103F80000E94111F07C0F701808191818C0F9D1F36
:103F900091838083F601D183C08381E0DF91CF914B
:103FA0000F91FF90EF90DF90CF90BF90AF909F90D8
:103FB0008F900895CF93DF93EC01A881B981FB0125
:103FC000EA0FFB1F20813181428153816481758119
:103FD000868197811896B983A883DF91CF91089540
:103FE000EF92FF920F931F93FC01DB01B901CA010D
:103FF0002D913C911197295F3F4F418552852417A0
:10400000350754F4BF01655F7F4FCD011F910F91BC
:10401000FF90EF900C94DA1F9701A8011F910F9168
:10402000FF90EF900895FB0120813181DA01A20F0A
:10403000B31F8D939C93808191810296918380839D
:1040400008959B01AC01455F5F4FBC01675F7F4FE7
:10405000C9010C941320FB0120813181DA01A20FE8
:10406000B31F8D939C93808191810296918380836D
:1040700008959B01AC01455F5F4FBC01675F7F4FB7
:10408000C9010C942B20CF93DF9300D000D0CDB783
:10409000DEB769837A838B839C83FA018081918167
:1040A000D901A80FB91F83E0FE01319601900D924E
:1040B0008A95E1F7FA01808191810396918380834B
:1040C0000F900F900F900F90DF91CF910895FC010A
:1040D000CB01BA019F01255F3F4FAF01475F5F4FA3
:1040E0000C944320FA0140815181D901A40FB51FDE
:1040F0006D937D938D939C9313978081918104960A
:10410000918380830895FC01CB01BA019F01255F53
:104110003F4FAF01475F5F4F0C947220EF92FF92C9
:104120000F931F93D801ED91FC911197EE0DFF1D98
:10413000208331834283538364837583868397838B
:104140008D919C91119708968D939C931F910F913F
:10415000FF90EF900895CF92DF92EF92FF920F932E
:104160001F93CF93DF936801D22FC32FB42FA52FB6
:10417000F62FE72F7C012BE0E20EF11C8C01075F8C
:104180001F4F96014D2F5C2F6B2F7A2F8F2F9E2F55
:104190000E948E20DF91CF911F910F91FF90EF90A1
:1041A000DF90CF900895EF920F93CF93DF93DA01D2
:1041B000FC0180E090E0002359F1861797070CF08E
:1041C0003DC04081442341F14491CD91DC91119750
:1041D000C20FD31F488301964D915C9111974F5F99
:1041E0005F4F11965C934E933196E7CF41914423F4
:1041F00099F0CD91DC911197C20FD31F488301969E
:104200004D915C9111974F5F5F4F11965C934E9368
:10421000861797075CF312C0ED91FC911197E20F9E
:10422000F31FE08201964D915C9111974F5F5F4FB4
:1042300011965C934E938617970774F3DF91CF9195
:104240000F91EF900895EF920F93FB01BA01022FA7
:104250009C01255F3F4FAC01475F5F4FEE24EA941E
:10426000CF010E94D3200F91EF900895BF92CF927B
:10427000DF92EF92FF920F931F93CF93DF930097FC
:1042800071F1B22EEC016A01E12CF12C062F10E045
:10429000E016F106A4F4E114F10429F06AEF71E0EC
:1042A000CE010E94C610F60161916F0140E150E01D
:1042B000CE010E945D11FFEFEF1AFF0AE9CFBB208C
:1042C00071F069EF71E0CE01DF91CF911F910F91F5
:1042D000FF90EF90DF90CF90BF900C94F510DF919E
:1042E000CF911F910F91FF90EF90DF90CF90BF90F3
:1042F0000895FF920F931F93CF93DF93611571057C
:1043000009F47BC0FC010381148125813681012BD6
:10431000022B032B09F471C0218532851216130676
:104320000CF06BC0F42EEB018C010E940F12AB015C
:10433000BC012AE030E0CE010E94501165EF71E02F
:10434000CE010E94C61060EF71E0CE010E94C6103F
:104350004AE050E0F8016281CE010E945D116AEEF0
:1043600071E0CE010E94C610F8014381548165813D
:1043700076812AE030E0CE010E94501161EE71E0BA
:10438000CE010E94C6104AE050E0F8016781CE01DC
:104390000E945D116AED71E0CE010E94C6104AE0F4
:1043A00050E0F8016085CE010E945D1164ED71E07E
:1043B000CE010E94C610F801618572854AE050E086
:1043C000CE010E94AC11F1100EC06DEC71E0CE0177
:1043D0000E94C610A801455F5F4F20E0F80161858B
:1043E000CE010E9436216CEC71E0CE01DF91CF91BD
:1043F0001F910F91FF900C94F510DF91CF911F91B9
:104400000F91FF900895FB01908161E0690F608337
:10441000DA01A90FB11D8C93D9016D917C9111978F
:10442000680F711D6D937C93803141F4908121E080
:10443000290F2083FA01E90FF11D808308954F921F
:104440005F926F927F928F929F92AF92BF92CF9224
:10445000DF92EF92FF920F931F93CF93DF93CDB72D
:10446000DEB7C359D1400FB6F894DEBF0FBECDBF43
:10447000FC0183809480A580B680DC01A651BF4FEB
:104480005C9011966C90119712967C9012971396EF
:104490004C908E010F561E4F6115710509F415C120
:1044A00081149104A104B10409F40FC1818592859E
:1044B000181619060CF009C16B017F0190E1998370
:1044C00092E09A8393E0CD56DE4F9883C359D14052
:1044D00093E99B8323E930E0F8013183208398013D
:1044E000AE014F5F5F4FBE016D567E4F855F0E94EC
:1044F00003229801AE014F5F5F4FBE016D567E4FA4
:10450000D70112968C910E9403229801AE014F5F51
:104510005F4FBE016D567E4F882D0E940322980189
:10452000AE014F5F5F4FBE016D567E4F892D0E94D9
:1045300003229801AE014F5F5F4FBE016D567E4F63
:104540008A2D0E9403229801AE014F5F5F4FBE018A
:104550006D567E4FF70180850E9403229801AE01BF
:104560004F5F5F4FBE016D567E4FD70117968C91FE
:104570000E9403229801AE014F5F5F4FBE016D564E
:104580007E4F852D0E9403229801AE014F5F5F4F41
:10459000BE016D567E4F862D0E9403229801AE010A
:1045A0004F5F5F4FBE016D567E4F872D0E940322E5
:1045B0009801AE014F5F5F4FBE016D567E4F842D57
:1045C0000E9403229801AE014F5F5F4FBE016D56FE
:1045D0007E4FF70181850E9403224701FBE08F0E89
:1045E000911CA12CB12CD70119968D919C911A97F1
:1045F000A816B90684F49801AE014F5F5F4FBE0163
:104600006D567E4FF40181914F010E940322FFEF0E
:10461000AF1ABF0AE8CFD8018D919C9160E071E09C
:104620000E942F64F80191838083009711F0819597
:1046300001C080E0CD56DE4F9881C359D14021E0C2
:10464000290FCD56DE4F2883C359D140E1E0F0E079
:10465000EC0FFD1FE90FF11D8083803169F49E5F2F
:10466000CD56DE4F9883C359D140E1E0F0E0EC0F26
:10467000FD1FE20FF11D8083CD56DE4F8881C359A7
:10468000D140E1E0F0E0EC0FFD1FE80FF11D90E1FB
:10469000908342E0480FCD56DE4F4883C359D14046
:1046A0008F5FE1E0F0E0EC0FFD1FE80FF11D83E00C
:1046B000808350E0D601ED91FC910480F581E02DDE
:1046C000BE016F5F7F4FC6010995CD56DE4F0FB615
:1046D000F894DEBF0FBECDBFDF91CF911F910F9138
:1046E000FF90EF90DF90CF90BF90AF909F908F9012
:1046F0007F906F905F904F900895CF92DF92EF92EE
:10470000FF920F931F93CF93DF9300D0CDB7DEB707
:104710008C017B011A821982FB01C080D180BA0111
:104720006C0D7D1DAC01CE0101960E94F9650C0D4A
:104730001D1DF7011183008389819A810F900F90CD
:10474000DF91CF911F910F91FF90EF90DF90CF906D
:1047500008958F929F92AF92BF92EF92FF920F9324
:104760001F934A015B01F901408151814F5F5F4F07
:10477000FC016185728546175707C4F4AC01455F9B
:104780005F4FB90182E090E00E947D238F3FFFE7F9
:104790009F0761F0BC01990F880B990B0E942E5D59
:1047A000A50194010E94630E7B018C01B701C80131
:1047B0001F910F91FF90EF90BF90AF909F908F90BF
:1047C0000895CF92DF92EF92FF920F931F93CF93B2
:1047D000DF9300D0CDB7DEB78C017B011A8219823E
:1047E000FB01C080D180BA016C0D7D1DAC01CE01F2
:1047F00001960E94F9650C0D1D1DF70111830083C0
:1048000089819A810F900F90DF91CF911F910F9125
:10481000FF90EF90DF90CF900895AB01BC0182E054
:1048200090E00C94E123FC01DB01CA012D913C9145
:1048300011972F5F3F4F418552852417350734F478
:10484000BF01655F7F4FCD010C940D2408958F92B9
:104850009F92AF92BF92EF92FF920F931F934A01E4
:104860005B01F901408151814F5F5F4FFC01618520
:10487000728546175707BCF4AC01455F5F4FB9011D
:1048800082E090E00E94E1238F3FFFEF9F0759F005
:10489000BC0180E090E00E942C5DA50194010E9483
:1048A000630E7B018C01B701C8011F910F91FF902E
:1048B000EF90BF90AF909F908F900895CF92DF922E
:1048C000EF92FF920F931F93CF93DF9300D000D00E
:1048D000CDB7DEB78C017B0119821A821B821C8244
:1048E000FB01C080D180BA016C0D7D1DAC01CE01F1
:1048F00001960E94F9650C0D1D1DF70111830083BF
:1049000069817A818B819C810F900F900F900F901D
:10491000DF91CF911F910F91FF90EF90DF90CF909B
:104920000895AB01BC0183E090E00C945E24FC018F
:10493000CB01DB016D917C91DB0112966185728563
:10494000A617B7072CF4BF01655F7F4F0C94912425
:10495000CA01B9010895AB01BC0184E090E00C9458
:104960005E24FC01CB01DB016D917C91DB01139690
:1049700061857285A617B7072CF4BF01655F7F4F6D
:104980000C94AB24CA01B9010895FC0122A133A102
:10499000232B11F470A767A30895FC0122A133A172
:1049A000232B11F476A765A70895CF93DF93EC012D
:1049B0008DA19EA1892BF1F48AA19BA1892BD1F411
:1049C0002FA138A52115310589F0213289E038075A
:1049D00038F44EE0429FC001439F900D112402C065
:1049E0008FEF9FEF0E9483109EA38DA31AA619A696
:1049F0001CA61BA6DF91CF910895FC0177FD06C090
:104A000081E020813181621773070CF080E0089506
:104A1000FC019081978F992319F09150978F0895F9
:104A20008BEF878F0895FC018385811103C09281EC
:104A3000992349F08381882329F09DEF980F81E025
:104A4000923008F480E0089561152BEE720781051D
:104A50009105D1F060F4611528EE7207810591058A
:104A600099F061157A4E8105910561F40DC06115CB
:104A70002CEE72078105910539F061157E4E810596
:104A8000910511F080E0089581E00895683D2EEFD2
:104A900072078105910539F061157D4E81409105C0
:104AA00011F080E0089581E00895643122EF7207EB
:104AB00021E08207910509F492C008F04DC06431ED
:104AC00021EF720721E082079105F8F4623121EFAE
:104AD000720721E08207910508F081C0603120EF64
:104AE000720721E08207910508F477C0623120EF58
:104AF000720721E08207910508F471C06D30714F93
:104B00008140910509F069C06AC0653022EF7207E3
:104B100021E08207910509F462C078F4693121EF40
:104B2000720721E08207910509F459C06115724F9F
:104B30008140910509F051C052C06D3022EF7207DB
:104B400021E08207910509F44AC06131724F81402A
:104B5000910509F042C043C0633029EF720721E09C
:104B600082079105E1F1C8F46B3025EF720721E06F
:104B700082079105A1F130F46330754F81409105B2
:104B800061F52DC0DC01CB018150984FA140B109E6
:104B90000297A105B10508F522C06B302DEF720711
:104BA00021E08207910568F466302DEF720721E05D
:104BB00082079105A0F462307D4F8140910569F430
:104BC0000EC06C302DEF720721E08207910539F09D
:104BD00060317E4F8140910511F080E0089581E0C1
:104BE0000895643120EF720721E08207910571F08A
:104BF000663120EF720721E08207910539F06115D7
:104C00007E4E8140910511F080E0089581E0089585
:104C1000673129EF720721E08207910508F099C0FA
:104C2000653129EF720721E08207910508F024C160
:104C3000643122EF720721E08207910508F03FC03E
:104C4000623122EF720721E08207910508F014C15A
:104C5000613022EF720721E08207910509F40CC14F
:104C6000B8F4613021EF720721E08207910509F461
:104C700003C138F4DC01CB018750904FA140B1094A
:104C80003CC06530714F8140910509F0F3C0F4C01C
:104C9000683022EF720721E08207910508F4EAC02C
:104CA0006B3022EF720721E08207910508F4E4C01F
:104CB000DC01CB018F50924FA140B109D7C06231C6
:104CC00028EF720721E08207910560F56E3028EF2A
:104CD000720721E08207910508F0CEC0633125EF0D
:104CE000720721E08207910509F4C6C060F4DC0177
:104CF000CB018551924FA140B1090697A105B1059D
:104D000008F0B8C0B9C0683026EF720721E082070A
:104D1000910509F4B1C06530784F8140910509F0E3
:104D2000A9C0AAC0643128EF720721E0820791056B
:104D300008F4A0C0663128EF720721E082079105D0
:104D400008F49AC0DC01CB018450994FA140B1090D
:104D50008DC067302CEF720721E08207910508F0C3
:104D600050C064302CEF720721E08207910508F0F3
:104D700083C06B302AEF720721E08207910509F4A6
:104D80007BC0E8F467302AEF720721E082079105C3
:104D900078F464302AEF720721E08207910508F069
:104DA0006BC062307A4F8140910509F063C064C0E6
:104DB00069307A4F8140910509F05CC05DC0643173
:104DC0002AEF720721E08207910509F455C078F4B3
:104DD0006D302AEF720721E08207910509F44CC07B
:104DE0006F307A4F8140910509F044C045C0DC0125
:104DF000CB019B5FA140B1094697A105B105D0F554
:104E00003BC065312DEF720721E08207910500F567
:104E100060312DEF720721E08207910568F56C3053
:104E20002CEF720721E08207910520F16E302CEF04
:104E3000720721E082079105F8F0DC01CB01805177
:104E40009C4FA140B1090B97A105B10598F414C07E
:104E500067302EEF720721E08207910569F050F06C
:104E6000DC01CB0181519E4FA140B1090297A10500
:104E7000B10510F080E0089581E0089561152FEEEE
:104E8000720721E08207910571F0DC01CB019F5F81
:104E9000A140B10921E08F3F9105A105B10521F0A5
:104EA00018F020E001C021E0822F0895CF92DF9218
:104EB000EF92FF926B017C010E943E27811115C089
:104EC000C1148FEED806E104F10471F09FEFD91AF6
:104ED000E108F10881E09FEFC916D104E104F10473
:104EE00021F018F080E001C081E0FF90EF90DF90AA
:104EF000CF9008956115710541F0FB01860F971F52
:104F0000E817F90711F01192FBCF0895CF934115DF
:104F1000510539F16115710521F1009701F1FC018D
:104F2000DA0120E030E0CB0101972817390718F4A7
:104F3000C191C11104C0FA01E20FF31F04C0CD9367
:104F40002F5F3F4FF2CF9F01241B350B26173707EA
:104F500010F41192F8CFFA01E80FF91F01C0FA011D
:104F60001082CF910895EF92FF920F931F93CF93EA
:104F7000DF93EC018B017A01BA01C8010E947A2704
:104F8000209759F0A701B801CE01DF91CF911F9171
:104F90000F91FF90EF900C948627DF91CF911F9196
:104FA0000F91FF90EF900895FC018DE292E09183C4
:104FB000808314AA13AA15AA10861782138E128E44
:104FC000178E168E158E148E11A210A213A212A285
:104FD00014A288E290E090A787A316A615A616A2B1
:104FE00015A210AA17A61286118612AA11AA138654
:104FF000148615861282138214828BE090E09683C9
:105000008583138A128A88E792E0958B848B87E7E1
:1050100092E0978B868B86E792E0918F808F178640
:10502000168681E090E0918B808B08958F929F92FD
:10503000AF92BF92CF92DF92EF92FF920F931F93A6
:10504000CF93DF938C016B014A015901FC018289E6
:105050009389009711F00E944D65F801138A128A16
:10506000C114D10479F0F60101900020E9F77F0125
:10507000EC18FD08F8E4EF16F10430F087E4E82EB0
:10508000F12C02C0E12CF12CC70182579F4F0E94E6
:10509000B564EC01F801938B828BAC0167E470E09E
:1050A000C4010E948627892819F09C2F8D2F02C0E9
:1050B00090E080E0F801968B878B4E01F7E48F0E2D
:1050C000911CA40167E470E0C5010E948627AB280B
:1050D00019F0982D892D02C090E080E0F801908FA2
:1050E000818FC257DF4FAE01B701C6010E948627EC
:1050F000CD2819F09C2F8D2F02C090E080E0F801A0
:10510000948B858BDF91CF911F910F91FF90EF9042
:10511000DF90CF90BF90AF909F908F900895CF93E6
:10512000DF934115510541F16115710529F1009792
:1051300031F0EA0120E030E0DB0111970CC0FA0108
:1051400010821AC0FC01E20FF31FE491EE2331F04C
:10515000E9932F5F3F4F2A173B07A0F3FA01E20FB5
:10516000F31FCF01841B950B8617970710F411923C
:10517000F8CFA40FB51F1C92DF91CF910895CF9265
:10518000DF92EF92FF920F931F93CF93DF93EC0187
:105190006A017B018901B90140960E94FD248823A0
:1051A00009F439C02EE533E0F90145915591659137
:1051B0007491411551056105710541F02C5F3F4F18
:1051C0004C155D056E057F0579F725C048E251E075
:1051D000049F9001059F300D149F300D1124EE8522
:1051E000FF85E20FF31F20A131A12115310591F0B8
:1051F000F9014591559165917491411551056105EC
:10520000710541F02C5F3F4FC416D506E606F70640
:1052100079F701C080E0DF91CF911F910F91FF904E
:10522000EF90DF90CF900895EF92FF920F931F932E
:10523000CF93DF937C01EB018A0140960E94FD240D
:10524000882389F1D7011E96ED91FC911F9788E282
:1052500091E0C89FD001C99FB00DD89FB00D112417
:10526000AE0FBF1F19968D919C911A97892B11F43F
:10527000C0E0D0E028E231E0C29FC001C39F900DA2
:10528000D29F900D1124E80FF91F81859285009718
:1052900061F021E0438554854817590709F420E05F
:1052A000F801208302C080E090E0DF91CF911F9150
:1052B0000F91FF90EF900895CF93DF931F92CDB79A
:1052C000DEB7AE014F5F5F4F0E941429FC01892BAE
:1052D00049F08981811103C08081918105C0859148
:1052E000949102C080E090E00F90DF91CF910895FB
:1052F000CF93DF931F92CDB7DEB7AE014F5F5F4F05
:105300000E941429FC01892B51F08981811103C06D
:105310008281938106C032968591949102C080E08B
:1053200090E00F90DF91CF910895EF92FF920F934D
:105330001F93CF93DF931F92CDB7DEB74115510571
:10534000B9F08A017B01FB011082AE014F5F5F4F14
:10535000B9010E941429009759F029810496A701E8
:10536000B801211103C00E94862702C00E948F2825
:105370000F90DF91CF911F910F91FF90EF900895C3
:10538000CF93DF931F92CDB7DEB7AE014F5F5F4F74
:105390000E941429009751F02981FC01E857FF4F22
:1053A000211102C0808103C0849101C080E00F9070
:1053B000DF91CF910895CF93DF931F92CDB7DEB7E2
:1053C000AE014F5F5F4F0E941429009751F0298171
:1053D000FC01E757FF4F211102C0808103C0849177
:1053E00001C080E00F90DF91CF910895EF92FF927E
:1053F0000F931F93CF93DF93EC017B010E941C2A34
:105400000A891B89095B1F4FA80167E470E0C70187
:105410000E948627EF2819F0902F812F02C090E07C
:1054200080E0988F898F81E08DABDF91CF911F91C4
:105430000F91FF90EF900895CF92DF92EF92FF923D
:105440000F931F93CF93DF93CDB7DEB7C754D10926
:105450000FB6F894DEBF0FBECDBFFC0122893389A1
:10546000232BA1F58C01C688D788E08CF18CAE0186
:105470004F5F5F4F67E470E0848995890E948F28B1
:1054800020E030E040E050E0BE016F5F7F4FC80198
:105490000E941628AE014F5F5F4F67E470E0C601BF
:1054A0000E948F28BE016F5F7F4FC8010E94762A3D
:1054B000AE014F5F5F4F67E470E0C7010E948F2825
:1054C000BE016F5F7F4FC8010E94F629C95BDF4FA5
:1054D0000FB6F894DEBF0FBECDBFDF91CF911F9105
:1054E0000F91FF90EF90DF90CF900895EF92FF9291
:1054F0000F931F93CF93DF93EC017B010E941C2A33
:105500000A891B89A80167E470E0C7010E94862709
:10551000EF2811F400E010E00E8B1F8B81E08DABC3
:10552000DF91CF911F910F91FF90EF9008959B0114
:10553000BA01FC014289538986899789452B19F064
:10554000A9010C948627A9010C948F289B01BA010C
:10555000FC0142895389808D918D452B19F0A90159
:105560000C948627A9010C948F289B01BA01FC0199
:105570004289538984899589452B19F0A9010C9496
:105580008627A9010C948F284F925F926F927F9289
:10559000AF92BF92CF92EF92FF920F931F93CF9350
:1055A000DF93EC012A013B01122FB50140960E94C6
:1055B000FD24882309F48FC0CE010E94792B2FEFA0
:1055C000E216F20639F128E231E0A29EC001A39E64
:1055D000900DB29E900D1124EE85FF85E80FF91F06
:1055E00081819281A381B481AC01BD016F71772764
:1055F000C701A0E0B0E025E1880F991FAA1FBB1FDB
:105600002A95D1F7842B952BA62BB72B81839283D8
:10561000A383B4838FEF4816580668067806F9F01E
:1056200028E231E0A29EC001A39E900DB29E900D93
:105630001124EE85FF85E80FF91F81819281A381F6
:10564000B48188279927A07E2FE162227724482AF7
:10565000592A6A2A7B2A41825282638274821F3FBE
:1056600071F028E231E0A29EC001A39E900DB29E8F
:10567000900D1124EE85FF85E80FF91F16830F3F6B
:1056800089F028E231E0A29EC001A39E900DB29E57
:10569000900D1124EE85FF85E80FF91F10E0000F33
:1056A000111F07838FEFC816B1F028E231E0A29EE8
:1056B000C001A39E900DB29E900D1124EE85FF8532
:1056C000E80FF91F20E1C29EC00111248068908577
:1056D0009F70892B8087DF91CF911F910F91FF9051
:1056E000EF90CF90BF90AF907F906F905F904F9072
:1056F00008952F923F924F925F926F927F928F9276
:105700009F92AF92BF92CF92DF92EF92FF920F9350
:105710001F93CF93DF93FC0186859785892B09F032
:10572000C8C0A088B1888FE6A816B10450F428E25A
:1057300031E0A29EC001A39E900DB29E900D112457
:1057400002C08FEF9FEF4F010E9483106C01EC01AC
:10575000212C312C30E6432E3AEE532E612C712C45
:10576000A214B30409F452C019821A821B821C824B
:105770001D821E821F821886E12CF12C00E010E0B1
:10578000980146E06FE0CE0188960E94B41E188210
:105790001A8619861C861B861E861D861F86188AF9
:1057A000198A1A8A1B8A1C8A1D8A1E8A1F8A188EC9
:1057B000198E1A8E1B8E1C8E1D8E1E8EABEFAF8F18
:1057C00019A218A21BA21AA21DA21CA21FA21EA2ED
:1057D000FE01E95EFE4F108211821282138234961E
:1057E0001082319640825182628273823496408266
:1057F00051826282738234961082118212821382E5
:10580000C85DDE4FBFEF2B1A3B0AAACFF401D78643
:10581000C68647A150A520893189429FC001439F78
:10582000900D529F900D112490A787A3D6011C962E
:105830001C921E921B9784EB92E01A969C938E9377
:105840001997612C712C212C312C21012394C0E05B
:10585000D0E0D40150968D919C915197C817D907EB
:1058600044F55E0184E0C82E9EEFE92E97E0F92E04
:1058700009E122E8B201A101C4010E94C42A1C1658
:105880001D065CF02196BFEF2B1A3B0A4B0A5B0A00
:10589000E8ED6E1AEEEF7E0ADCCFD4011E96ED9194
:1058A000FC911F97E60DF71D14861386128611864C
:1058B000E9CFDF91CF911F910F91FF90EF90DF9093
:1058C000CF90BF90AF909F908F907F906F905F90A0
:1058D0004F903F902F9008952F923F924F925F925A
:1058E0006F927F928F92AF92BF92CF92EF92FF9280
:1058F0000F931F93CF93DF9300D000D000D0CDB78C
:10590000DEB73C017A8369835C834B8329011801EC
:10591000FE82ED82E98CFA8CB70140960E94FD244C
:10592000882309F478C0C3010E94792B88E291E0B2
:10593000E89E8001E99E100DF89E100D1124D30100
:105940001E96ED91FC911F97E00FF11F83859485C2
:10595000892B91F48AE890E00E9481102AE8FC01EA
:1059600011922A95E9F7D3011E96ED91FC911F97AC
:10597000E00FF11F94878387D3011E96ED91FC9170
:105980001F97E00FF11FE384F484F286E186BFEFF6
:10599000AB16BB0619F09A2D8B2D02C095E388E05B
:1059A000F701908381838B819C8193838283A701FC
:1059B0004C5F5F4F61E270E0C2010E94B327A70114
:1059C0004B5D5F4F61E270E0C1010E94B327A70108
:1059D0004A5B5F4F61E270E08D819E810E94B32738
:1059E000A70149595F4F61E270E089819A810E9465
:1059F000B3279FEF891201C0812CF701E857FF4FB1
:105A00008082AFEFCA1611F08C2D01C081E0F70142
:105A1000E757FF4F808326960FB6F894DEBF0FBE80
:105A2000CDBFDF91CF911F910F91FF90EF90CF905D
:105A3000BF90AF908F907F906F905F904F903F900E
:105A40002F900895EF92FF920F931F93CF93DF93C0
:105A5000EC017B018A01BA0140960E94FD24882353
:105A600091F0CE010E94792B28E231E0029FC00123
:105A7000039F900D129F900D1124EE85FF85E80F76
:105A8000F91FF1A2E0A2DF91CF911F910F91FF903A
:105A9000EF900895EF92FF920F931F93CF93DF93B0
:105AA000EC017B018A01BA0140960E94FD24882303
:105AB00091F0CE010E94792B28E231E0029FC001D3
:105AC000039F900D129F900D1124EE85FF85E80F26
:105AD000F91FF3A2E2A2DF91CF911F910F91FF90E6
