:100000000C9412010C943A010C943A010C943A01AC
:100010000C943A010C943A010C943A010C943A0174
:100020000C943A010C943A010C943A010C943A0164
:100030000C943A010C943A010C943A010C943A0154
:100040000C943A010C944D190C943A010C943A0119
:100050000C9484180C943A010C943A010C943A01D3
:100060000C943A010C943A010C943A010C943C0122
:100070000C94440C0C943A010C943A011813391363
:1000800018135413181385131813BD1318133913A9
:1000900018135413181385131813D0131813391386
:1000A00018135413181385131813E3131813391363
:1000B00018135413181385131813FC1300316253CB
:1000C000C4F5A697B988DBEA7D4C1F2E4372211038
:1000D00087B6E5D4FACB98A93E0F5C6D86B7E4D518
:1000E000427320113F0E5D6CFBCA99A8C5F4A79618
:1000F000013063527C4D1E2FB889DAEB3D0C5F6EE8
:10010000F9C89BAA84B5E6D7407122137E4F1C2DF7
:10011000BA8BD8E9C7F6A59403326150BB8AD9E8F7
:100120007F4E1D2C02336051C6F7A495F8C99AABD7
:100130003C0D5E6F4170231285B4E7D67A4B1829C7
:10014000BE8FDCEDC3F2A1900736655439085B6AB7
:10015000FDCC9FAE80B1E2D344752617FCCD9EAF97
:1001600038095A6B4574271681B0E3D2BF8EDDEC97
:100170007B4A192806376455C2F3A09147762514A7
:1001800083B2E1D0FECF9CAD3A0B58690435665777
:10019000C0F1A293BD8CDFEE79481B2AC1F0A39277
:1001A0000534675678491A2BBC8DDEEF82B3E0D157
:1001B000467724153B0A5968FFCE9DAC0001040028
:1001C000000000000000000000000300000000002C
:1001D00000000000100802040801028008108001DD
:1001E0000102042040041020402040800404030346
:1001F00003020204020203040304040404020303CE
:100200000302020200000000230026002900000073
:100210000000250028002B0000000000240027001B
:100220002A00E61811241FBECFEFD0E1DEBFCDBFFC
:1002300011E0A0E0B1E0E6E4F8E302C005900D9221
:10024000AC33B107D9F722E0ACE3B1E001C01D92B5
:10025000AB36B207E1F711E0C2E1D1E004C021976B
:10026000FE010E94D31BC131D107C9F70E941419A6
:100270000C94211C0C9400001F920F9200905F00C0
:100280000F9211242F933F934F935F936F937F931C
:100290008F939F93AF93BF93EF93FF93CF93DF938E
:1002A00000D000D0CDB7DEB7789488E790E0DC01CD
:1002B0008D919C919C838B8380917D018F5F809336
:1002C0007D0190917D0181E0943008F480E08823E5
:1002D00009F4FEC01A82198289819A8102970CF072
:1002E000B7C040917B0150917C0189819A819C012A
:1002F000220F331F280F391FC901880F991F9C0136
:10030000CA01880F991F840F951F880F991F880FA6
:10031000991F820F931F8D5B9E4FFC0180819181FD
:1003200021E0803A9F4008F020E0222309F48AC0AF
:10033000E0917B01F0917C0140917B0150917C0127
:1003400089819A819C01220F331F280F391FC9010F
:10035000880F991F9C01CA01880F991F840F951F50
:10036000880F991F880F991F820F931F815C9E4FE2
:10037000DC012D913D914D915C918B819C81CC0153
:10038000A0E0B0E0BA01A901480F591F6A1F7B1F06
:1003900089819A819C01220F331F280F391FC901BF
:1003A000880F991F9C01CF01880F991F8E0F9F1FE7
:1003B000880F991F880F991F820F931F815C9E4F92
:1003C000FC01408351836283738340917B01509190
:1003D0007C0189819A819C01220F331F280F391FCC
:1003E000C901880F991F9C01CA01880F991F840FAA
:1003F000951F880F991F880F991F820F931F8D5B80
:100400009E4FDC018D919C91BC016F5F7F4F898174
:100410009A819C01220F331F280F391FC901880FB1
:10042000991F9C01CA01880F991F840F951F880F7F
:10043000991F880F991F820F931F8D5B9E4FFC01A0
:100440007183608389819A8101969A83898344CFDD
:1004500080917D01282F30E0809104019091050169
:1004600028173907A8F110927D0180917B019091A6
:100470007C01019690937C0180937B0180917B01AC
:1004800090917C0121E0059708F420E0222321F0DF
:1004900010927C0110927B0180917B0190917C01F4
:1004A000880F991F8F5D9E4FDC018D919C919093D9
:1004B0000501809304018CE790E020917B0130914D
:1004C0007C01245E3E4FF9012081206CDC012C93DD
:1004D0008AE790E02AE730E0F90120812064DC011E
:1004E0002C9300000F900F900F900F90DF91CF9101
:1004F000FF91EF91BF91AF919F918F917F916F91FC
:100500005F914F913F912F910F9000925F000F905C
:100510001F901895CF93DF93CDB7DEB781E080931E
:100520003E0185E290E025E230E0F90120812F7B59
:10053000FC0120838BE290E02BE230E0F901208186
:100540002460FC01208388E290E028E230E0F90199
:1005500020812260FC01208385E290E025E230E0EA
:10056000F90120812064FC01208368EE73E080E0C3
:1005700090E00E94C81980E00E94070460E080E0DB
:100580000E94FA0221E0883E934008F020E02223F6
:1005900039F06AE070E080E090E00E94C819EECF88
:1005A00080E00E94070480913C0190913D0190936E
:1005B00001018093000185E290E025E230E0F9013D
:1005C00020812F7BFC0120838BE290E02BE230E046
:1005D000F90120812B7FFC01208388E290E028E252
:1005E00030E0F90120812D7FFC0120830000DF91A4
:1005F000CF910895CF93DF9300D0CDB7DEB7898335
:100600006A838981482F50E08A81882F90E09C017D
:10061000220F331F280F391FC901880F991F9C0112
:10062000CA01880F991F840F951F880F991F880F83
:10063000991F820F931F8D5B9E4FFC0180819181DA
:100640000F900F90DF91CF910895CF93DF93CDB7A7
:10065000DEB72F970FB6F894DEBF0FBECDBF8E87E3
:100660006F878FE590E0FC0180818983F8948E8507
:10067000482F50E08F85882F90E09C01220F331F78
:10068000280F391FC901880F991F9C01CA01880FC3
:10069000991F840F951F880F991F880F991F820F2C
:1006A000931F815C9E4FFC0180819181A281B38167
:1006B0008A839B83AC83BD838E85482F50E08F85D2
:1006C000882F90E09C01220F331F280F391FC9018A
:1006D000880F991F9C01CA01880F991F840F951FCD
:1006E000880F991F880F991F820F931F8D5B9E4F54
:1006F000FC0180819181CC01A0E0B0E08E839F83DA
:10070000A887B9878E85482F50E08F85882F90E085
:100710009C01220F331F280F391FC901880F991F11
:100720009C01CA01880F991F840F951F880F991F7C
:10073000880F991F820F931F815C9E4FFC011082CE
:100740001182128213828E85482F50E08F85882F68
:1007500090E09C01220F331F280F391FC901880F19
:10076000991F9C01CA01880F991F840F951F880F3C
:10077000991F880F991F820F931F8D5B9E4FFC015D
:10078000118210828FE590E02981FC0120838E8107
:100790009F81A885B985892B8A2B8B2B19F480E042
:1007A00090E02CC08A819B81AC81BD81880F991F0C
:1007B000AA1FBB1F880F991FAA1FBB1F880F991F55
:1007C000AA1FBB1F880F991FAA1FBB1F880F991F45
:1007D000AA1FBB1F880F991FAA1FBB1F2E813F8115
:1007E00048855985BC01CD010E94921BDA01C901DF
:1007F0008A879B87AC87BD878A859B852F960FB696
:10080000F894DEBF0FBECDBFDF91CF910895EF9278
:10081000FF920F931F93CF93DF9300D000D01F92CE
:10082000CDB7DEB78D836D8180E00E942503CC01BA
:10083000A0E0B0E089839A83AB83BC8329813A81AD
:100840004B815C8180E09AE0DC010E94E81BDC01C6
:10085000CB0189839A83AB83BC8389819A81AB81E5
:10086000BC81CD01AA27BB2789839A83AB83BC8334
:1008700089819A81AB81BC8190933D0180933C0139
:1008800080910001909101019C0140E050E089813C
:100890009A81AB81BC8161E0281739074A075B0761
:1008A00008F460E0662329F019821A821B821C82F8
:1008B0003EC029813A814B815C81809100019091F9
:1008C0000101CC01A0E0B0E079018A01E81AF90A3F
:1008D0000A0B1B0BD801C70189839A83AB83BC83A6
:1008E00080910201909103019C0140E050E08981D8
:1008F0009A81AB81BC81BC01CD010E94821BDC01CD
:10090000CB0189839A83AB83BC8389819A81AB8134
:10091000BC812AE030E040E050E0BC01CD010E9403
:10092000921BDA01C90189839A83AB83BC838981D5
:100930009A81AB81BC810F900F900F900F900F9018
:10094000DF91CF911F910F91FF90EF900895EF925B
:10095000FF920F931F93CF93DF9300D000D01F928D
:10096000CDB7DEB78D836D8181E00E942503CC0178
:10097000A0E0B0E089839A83AB83BC8329813A816C
:100980004B815C8180E09AE0DC010E94E81BDC0185
:10099000CB0189839A83AB83BC8389819A81AB81A4
:1009A000BC81CD01AA27BB2789839A83AB83BC83F3
:1009B00080913E01882359F529813A814B815C81E0
:1009C000DA01C901880F991FAA1FBB1F820F931F4D
:1009D000A41FB51F880F991FAA1FBB1F89839A8365
:1009E000AB83BC8389819A81AB81BC8121E0813654
:1009F0009B43A105B10508F420E02223D9F181E051
:100A000080933E0160E089E00E94291B33C0298168
:100A10003A814B815C81DA01C901880F991FAA1FB5
:100A2000BB1F7C018D01EE0CFF1C001F111FEE0C83
:100A3000FF1C001F111F8E0D9F1DA01FB11F820FD5
:100A4000931FA41FB51F89839A83AB83BC838981BD
:100A50009A81AB81BC8121E0803B9643A105B10521
:100A600008F020E0222331F010923E0160E089E09E
:100A70000E94621A89819A81AB81BC812AE030E0B0
:100A800040E050E0BC01CD010E94921BDA01C90197
:100A90000F900F900F900F900F90DF91CF911F91BB
:100AA0000F91FF90EF900895EF92FF920F931F9395
:100AB000CF93DF93CDB7DEB729970FB6F894DEBF9B
:100AC0000FBECDBF8987698583E00E942503CC01D5
:100AD000A0E0B0E08D839E83AF83B8872D813E81F7
:100AE0004F81588580E09AE0DC010E94E81BDC0120
:100AF000CB018D839E83AF83B8878D819E81AF812B
:100B0000B885CD01AA27BB278D839E83AF83B88785
:100B10008D819E81AF81B8859C01AD0160EA76E848
:100B200081E090E00E94821B7B018C018D819E817F
:100B3000AF81B88528E833E140E050E0281B390B4D
:100B40004A0B5B0BC801B7010E94921BDA01C90175
:100B500089839A83AB83BC8389819A81AB81BC8171
:100B60009C01AD01285D354F4F4F5F4F80E893ECFE
:100B7000A9ECB1E0BC01CD010E94921BDA01C901D0
:100B800088539F4F29960FB6F894DEBF0FBECDBF96
:100B9000DF91CF911F910F91FF90EF900895CF9328
:100BA000DF9300D000D01F92CDB7DEB78D836D816B
:100BB00084E00E942503CC01A0E0B0E089839A8301
:100BC000AB83BC8389819A81AB81BC810F900F90EC
:100BD0000F900F900F90DF91CF910895CF93DF93F7
:100BE00000D000D01F92CDB7DEB78D836D8182E03B
:100BF0000E942503CC01A0E0B0E089839A83AB83F7
:100C0000BC8329813A814B815C8180E09AE0DC01E0
:100C10000E94E81BDC01CB0189839A83AB83BC83F0
:100C200089819A81AB81BC81CD01AA27BB278983A9
:100C30009A83AB83BC8389819A81AB81BC819C01FF
:100C400048E2429FC001439F900D11248C549D4661
:100C50000F900F900F900F900F90DF91CF9108950C
:100C6000CF93DF9300D000D000D0CDB7DEB79A830A
:100C700089834B835C836D837E838B819C81AD8173
:100C8000BE81E981FA8120E0AC01BD01CF010E9463
:100C90003C18000026960FB6F894DEBF0FBECDBFFD
:100CA000DF91CF910895CF93DF9300D000D01F92B2
:100CB000CDB7DEB78C836D839C818D818927882F8A
:100CC00090E084549F4F9A83898389819A81FC01A3
:100CD00084918B838B810F900F900F900F900F90CA
:100CE000DF91CF910895CF93DF9300D000D01F9272
:100CF000CDB7DEB78A837C836B834D838A818983FA
:100D00008D819FEF980F9D8391E0882309F490E0F7
:100D1000992379F08B819C819C012F5F3F4F3C830D
:100D20002B83FC018081682F89810E94530689836F
:100D3000E7CF89810F900F900F900F900F90DF9168
:100D4000CF910895CF93DF9300D01F92CDB7DEB738
:100D50009A8389836B8389819A814B81BC018FEF50
:100D60000E9473060F900F900F90DF91CF9108951E
:100D7000CF93DF93CDB7DEB7A8970FB6F894DEBF59
:100D80000FBECDBFF89481E690E020E8FC012083FF
:100D900081E690E0FC01108229E080E090E0FC0117
:100DA0002093570084918B838B818C8329E083E08F
:100DB00090E0FC012093570084918D838D818E8378
:100DC00029E082E090E0FC012093570084918F831A
:100DD0008F8188878C81882F90E08F7799278F3734
:100DE000910579F48E81882F90E081799927803957
:100DF000910539F48885882F90E08F739927CA97D9
:100E000049F0809106019091070198609093070145
:100E10008093060180917E01882301F5A89589E0E1
:100E200090E088709927892B11F088E201C088E052
:100E300099E09770892B982F88E10FB6F894A895C0
:100E4000809360000FBE9093600080E690E020E603
:100E500030E0F90120812064FC01208378941A821B
:100E6000198289819A814F9750F489819A810E94D1
:100E70005A1489819A8102969A838983F2CF60E01D
:100E80008FE00E94621A60E080E10E94621A60E0D6
:100E900081E10E94621A61E082E10E94621A60E0D0
:100EA00082E10E94291B61E083E10E94621A61E0F5
:100EB00083E10E94291B62E083E10E94621A61E0E3
:100EC00084E10E94621A61E084E10E94291B62E0D1
:100ED00084E10E94621A60E085E10E94621A61E08A
:100EE00086E10E94621A60E086E10E94291B61E0AF
:100EF00082E00E94621A60E082E00E94291B61E0A9
:100F000089E00E94621A60E089E00E94291B61E08A
:100F10008AE00E94621A60E08AE00E94291B61E078
:100F20008BE00E94621A60E08BE00E94291B60E067
:100F30008CE00E94621A61E08EE00E94621A60E01A
:100F40008EE00E94291B8CE00E94581B892B31F0F7
:100F500080917E01882311F481E001C080E0882324
:100F6000A1F083E590E023E530E0F9012081217FC5
:100F70002C60FC01208383E590E023E530E0F9015B
:100F800020812160FC01208388958EE790E02CE68B
:100F9000FC0120838FE790E021E0FC0120838CE7B7
:100FA00090E028ECFC0120838BE790E025E0FC0139
:100FB00020838AE790E02FE8FC0120838AE790E015
:100FC0002AE730E0F90120812064FC0120830E949F
:100FD0008A021092850140E056E960E070E085ECFD
:100FE00091E00E94300683E590E023E530E0F901CE
:100FF0002081217FFC01208380E090E0A8ECB2E416
:1010000089879A87AB87BC872BEA3AEA4AEA50E499
:1010100069857A858B859C850E940717DC01CB0149
:101020008D879E87AF87B88B20E030E040E850E4A2
:1010300069857A858B859C850E940717DC01CB0129
:10104000898B9A8BAB8BBC8B20E030E040E85FE370
:101050006D857E858F8598890E94E71588231CF40D
:1010600081E08D8BB2C020E03FEF4FE757E4698904
:101070007A898B899C890E94021718160CF07BC014
:1010800020E030E04AE754E469857A858B859C85C9
:101090000E94EC15DC01CB018E8B9F8BA88FB98F42
:1010A00020E030E04AE755E46E897F89888D998D8C
:1010B0000E940717DC01CB018A8F9B8FAC8FBD8FFD
:1010C00020E030E040E85FE36A8D7B8D8C8D9D8D64
:1010D0000E94E71588232CF481E090E09F8F8E8F8B
:1010E0003FC020E03FEF4FE757E46A8D7B8D8C8D4A
:1010F0009D8D0E94021718164CF520E030E040E26A
:1011000051E46E897F89888D998D0E940717DC01D3
:10111000CB01BC01CD010E945E16DC01CB019F8F8B
:101120008E8F8E8D9F8D892B09F44FC080E991E0C1
:1011300099A388A388A199A10197F1F799A388A3FE
:101140008E8D9F8D01979F8F8E8FEBCF6A8D7B8DBC
:101150008C8D9D8D0E945E16DC01CB019F8F8E8F42
:101160008E8D9F8D9BA38AA38AA19BA10197F1F7E6
:101170009BA38AA32AC020E030E04FE753E46D85AB
:101180007E858F8598890E9402171816ACF46989AC
:101190007A898B899C890E945E16DC01CB019DA314
:1011A0008CA38CA19DA19FA38EA38EA19FA101972B
:1011B000F1F79FA38EA30FC06D857E858F859889DB
:1011C0000E945E16DC01CB018D8B8D8988A788A5D6
:1011D0008A95F1F788A70000A8960FB6F894DEBFAD
:1011E0000FBECDBFDF91CF910895CF93DF9300D095
:1011F00000D01F92CDB7DEB79D838C838C819D81FB
:1012000090931501809314018C819D81893E9340B8
:10121000E8F18C819D818D36974028F084E190E043
:101220009A83898314C08C819D818C34944028F4E6
:1012300084E893E09A8389830AC020ED37E08C81AB
:101240009D81F901E81BF90BCF019A8389838AE814
:1012500090E029813A81FC013183208380E890E08D
:1012600022E3FC0120838BE290E02BE230E0F901E5
:1012700020812B7FFC01208385E290E025E230E095
:10128000F90120812064FC0120835DC08C819D8157
:10129000883E9340B8F58C819D818436910528F471
:1012A00084E190E09A8389830EC08C819D8185388A
:1012B000934028F084E893E09A83898304C08C816A
:1012C0009D819A83898388E890E029813A81FC0195
:1012D0003183208380E890E022ECFC01208388E2C7
:1012E00090E028E230E0F90120812D7FFC0120838D
:1012F00085E290E025E230E0F90120812064FC01E4
:10130000208321C08BE290E02BE230E0F9012081C4
:101310002B7FFC01208388E290E028E230E0F90195
:1013200020812D7FFC01208385E08B838B818A9532
:10133000F1F78B8385E290E025E230E0F90120812E
:101340002F7BFC01208300000F900F900F900F90D7
:101350000F90DF91CF910895CF93DF93CDB7DEB794
:1013600088EE93E00E94F50888EE93E090931701D1
:101370008093160110929F0110929E010000DF9150
:10138000CF910895CF93DF93CDB7DEB7809114014D
:1013900090911501893E934010F00E94AC09000025
:1013A000DF91CF910895CF93DF93CDB7DEB78091D2
:1013B000140190911501883E934010F40E94AC09ED
:1013C0000000DF91CF910895CF93DF93CDB7DEB7C3
:1013D00028970FB6F894DEBF0FBECDBF80910E01E7
:1013E000882F90E0880F991F880F991F9C838B830B
:1013F00080910F01882F90E0880F991F880F991F07
:101400009E838D83809114019091150198878F831D
:1014100080911601909117019C018F819885A901F7
:10142000481B590BCA019A83898389819A811816AE
:101430001906ECF48F819885883E934060F42981E9
:101440003A818D819E8182179307DCF58D819E8183
:101450009A83898336C029813A818B819C81821746
:1014600093077CF58B819C819A8389832AC08F8125
:101470009885893E934098F08D819E81222733275D
:10148000281B390B89819A8182179307D4F48D81A7
:101490009E819195819591099A83898312C08B8150
:1014A0009C8122273327281B390B89819A81821737
:1014B00093073CF48B819C819195819591099A8346
:1014C000898329813A818F819885820F931F0E9499
:1014D000F508000028960FB6F894DEBF0FBECDBF0A
:1014E000DF91CF910895CF92DF92EF92FF920F9309
:1014F0001F93CF93DF93CDB7DEB72C970FB6F89439
:10150000DEBF0FBECDBF19821A821B821C82809162
:101510008A0190918B016C01E12CF12C0E94C11584
:10152000CC01A0E0B0E0A7019601BC01CD010E9472
:10153000821BDC01CB0124E630E040E050E0BC013E
:10154000CD010E94B41BDA01C9018D839E83AF8354
:10155000B88780919E0190919F01892B09F4BAC0B0
:1015600080919E0190919F019C0140E050E080910C
:10157000A0019091A101CC01A0E0B0E079018A0125
:10158000E81AF90A0A0B1B0BD801C70189879A8749
:10159000AB87BC8789859A85AB85BC8518161906EB
:1015A0001A061B0684F529853A854B855C858D8155
:1015B0009E81AF81B885281739074A075B074CF031
:1015C00088EE93E0A0E0B0E089839A83AB83BC838C
:1015D00056C029853A854B855C8588EE93E0DC0111
:1015E0000E94E81BDC01CB012D813E814F81588593
:1015F000BC01CD010E94B41BDA01C90189839A8321
:10160000AB83BC833CC089859A85AB85BC85BB23F5
:10161000B4F58D819E81AF81B88522273327A9013A
:10162000281B390B4A0B5B0B89859A85AB85BC85DA
:10163000281739074A075B074CF088E19CEFAFEFAA
:10164000BFEF89839A83AB83BC8319C029853A8510
:101650004B855C8588EE93E0DC010E94E81BDC0191
:10166000CB012D813E814F815885BC01CD010E9467
:10167000B41BDA01C90189839A83AB83BC8380914F
:101680008901813069F489819A81AB81BC8188515B
:101690009C4FAF4FBF4F89839A83AB83BC8314C0E9
:1016A00028EE33E040E050E089819A81AB81BC8133
:1016B00079018A01E81AF90A0A0B1B0BD801C70144
:1016C00089839A83AB83BC8389819A819093170124
:1016D0008093160100002C960FB6F894DEBF0FBE63
:1016E000CDBFDF91CF911F910F91FF90EF90DF90D1
:1016F000CF900895CF93DF93CDB7DEB70E94AC09AA
:101700008091060190910701877F90930701809354
:1017100006010E949719DC01CB0180569940A1096E
:10172000B10980938C0190938D01A0938E01B093A9
:101730008F0160E08BE00E94291B0000DF91CF91B8
:101740000895CF93DF931F92CDB7DEB780E890E086
:10175000FC01108281E890E0FC0110828BE290E0B5
:101760002BE230E0F90120812B7FFC01208388E20D
:1017700090E028E230E0F90120812D7FFC012083F8
:1017800085E0898389818A95F1F7898385E290E0F4
:1017900025E230E0F90120812F7BFC01208300004D
:1017A0000F90DF91CF910895CF93DF931F92CDB724
:1017B000DEB7809106019091070188709927892BE7
:1017C00009F05DC084E890E0FC011182108280E89D
:1017D00090E022E0FC01208381E890E029E1FC0117
:1017E000208386E890E028EE33E0FC0131832083FB
:1017F0008BE290E02BE230E0F90120812B7FFC01AD
:10180000208388E290E028E230E0F90120812D7FFA
:10181000FC01208385E0898389818A95F1F789839A
:1018200085E290E025E230E0F90120812F7BFC0188
:10183000208361E082E00E94621A61E08EE00E94F3
:10184000621A88EE93E00E94F50861E08BE00E9446
:10185000291B0E949719DC01CB0180938C01909386
:101860008D01A0938E01B0938F018091060190911C
:1018700007018860909307018093060101C0000072
:101880000F90DF91CF9108951F920F9200905F000B
:101890000F9211242F933F934F935F936F937F93F6
:1018A0008F939F93AF93BF93EF93FF93CF93DF9368
:1018B000CDB7DEB7A8950FB6F894A89580916000D3
:1018C000886180936000109260000FBE0E947A0BC6
:1018D00080E593EC0E94041A0E94A10B8091A20162
:1018E0009091A301FC0109950000DF91CF91FF9138
:1018F000EF91BF91AF919F918F917F916F915F9188
:101900004F913F912F910F9000925F000F901F9089
:101910001895CF93DF9300D0CDB7DEB780919301B8
:10192000282F30E080919401882F90E0982F88270D
:10193000822B932B9A8389838091060190910701D2
:101940008160909307018093060180919201882F16
:1019500090E08836910509F417C289369105DCF4C8
:101960008B32910509F464C18C3291053CF48931C4
:10197000910561F14E9709F42BC15DC28335910544
:1019800009F442C28A35910509F442C18D349105AA
:1019900009F4A4C150C2843A910509F429C1853AD9
:1019A00091054CF48137910509F4FAC1813991050B
:1019B00009F41BC240C2893C910509F483C0873EEB
:1019C000910559F0873C910591F035C2809118013D
:1019D00090911901FC0109952EC280910601909108
:1019E00007018B7F909307018093060124C20E9418
:1019F0009719DC01CB0180938C0190938D01A0930A
:101A00008E01B0938F0180918501883028F48091F8
:101A100085018C5F8093850189819A81813D974002
:101A200008F0FCC180910601909107018678992702
:101A3000892B09F0F5C18091060190910701807210
:101A40009270892B41F089819A81893E934018F0E8
:101A50000E94AC0936C08091060190910701807404
:101A60009170892B41F089819A81883E934018F4C6
:101A70000E94AC0926C010929F0110929E01809195
:101A80008A0190918B01892B99F489819A818D34F7
:101A9000944028F08CE494E09A83898309C089817A
:101AA0009A818438934020F484E893E09A83898370
:101AB00089819A8190931701809316010E94D40B1B
:101AC000BAC1B9C10E949719DC01CB0180938C0186
:101AD00090938D01A0938E01B0938F018091850129
:101AE000883028F4809185018C5F809385018091F6
:101AF0008801882309F49FC180918A0190918B010C
:101B0000892B09F498C1809106019091070186788C
:101B10009927892B09F08FC180918901813001F5C6
:101B2000809110019091110129813A81281739077C
:101B300038F480911001909111019A83898333C008
:101B4000809112019091130129813A8182179307A4
:101B500050F580911201909113019A83898323C0DB
:101B6000809189018230F9F48091100190911101E6
:101B700029813A818217930738F48091100190915E
:101B800011019A8389830FC08091120190911301F2
:101B900029813A812817390730F4809112019091F8
:101BA00013019A83898320919E0130919F0189813D
:101BB0009A812817390709F435C189819A81909350
:101BC0009F0180939E010E94730A0E94D40B2AC138
:101BD00089819A81813A9F4020F080EA9FE09A8330
:101BE000898389819A81909309018093080123C197
:101BF00089819A818533914220F084E391E29A832E
:101C0000898389819A8190930B0180930A0113C182
:101C100089819A818533914220F084E391E29A830D
:101C2000898389819A8190930D0180930C0103C16E
:101C300089819A81909311018093100189819A8101
:101C4000892B29F089819A81803C9F4F28F010923E
:101C50008B0110928A01E8C08091120190911301CA
:101C6000892B09F4E1C08091120190911301803C0D
:101C70009F4F08F0D9C0209110013091110180913F
:101C800012019091130128173907A0F481E0809385
:101C900089012091120130911301809110019091DE
:101CA0001101A901481B590BCA0190938B01809324
:101CB0008A01BAC082E0809389012091100130919D
:101CC00011018091120190911301F901E81BF90BA8
:101CD000CF0190938B0180938A01A6C089819A815C
:101CE000909313018093120189819A81892B29F0A5
:101CF00089819A81803C9F4F28F010928B0110922D
:101D00008A0194C08091100190911101892B09F4EE
:101D10008DC08091100190911101803C9F4F08F07F
:101D200085C0209110013091110180911201909194
:101D3000130128173907A0F481E0809389012091CD
:101D40001201309113018091100190911101A901AC
:101D5000481B590BCA0190938B0180938A0166C07E
:101D600082E08093890120911001309111018091CE
:101D7000120190911301F901E81BF90BCF01909327
:101D80008B0180938A0152C080918501883028F4AC
:101D9000809185018C5F809385010E947A0B4BC0F6
:101DA0008091930180930E018091940180930F01A3
:101DB00080910E018B3F18F08AEF80930E01809185
:101DC0000F018B3F18F08AEF80930F0180910E0175
:101DD000882319F481E080930E0180910F018823FC
:101DE00039F581E080930F0123C09091900180919B
:101DF00091019817F9F4809193018093900180915B
:101E000094018093910116C02091940180919301D7
:101E1000882F90E0622F0E943C150DC000000BC07F
:101E2000000009C0000007C0000005C0000003C09A
:101E3000000001C0000000000F900F90DF91CF91D3
:101E40000895EF92FF920F931F93CF93DF93CDB737
:101E5000DEB7EB970FB6F894DEBF0FBECDBF61E0E3
:101E600084E00E94FA0221E0419708F420E0222356
:101E700009F49FC081E00E94CF059093A101809357
:101E8000A0018091A0019091A1019D838C838091FC
:101E90008801882309F477C080918A0190918B0191
:101EA000892B31F180918901813049F480911001B1
:101EB000909111012C813D812817390768F080919C
:101EC00089018230A9F480911001909111012C8137
:101ED0003D818217930760F40E94D3098091060127
:101EE000909107019160909307018093060109C0CA
:101EF00080910601909107019E7F90930701809346
:101F0000060180918A0190918B01892B31F180919A
:101F10008901813049F480911201909113012C8143
:101F20003D818217930768F0809189018230A9F47E
:101F300080911201909113012C813D81281739075E
:101F400060F40E94C209809106019091070192609D
:101F5000909307018093060109C08091060190913A
:101F600007019D7F90930701809306018C819D81DD
:101F70008115944028F08C819D81813C9B4FC8F055
:101F80001092880116C08C819D818130964040F06E
:101F90008C819D81803C994F18F481E08093880169
:101FA00080910601909107019C7F90930701809397
:101FB00006010E949719DC01CB018E839F83A887BD
:101FC000B9878091810190918201A0918301B091A4
:101FD00084012E813F814885598579018A01E81A5B
:101FE000F90A0A0B1B0BD801C7014597A105B105DA
:101FF000F0F0809106019091070188709927892B54
:10200000B1F08E819F81A885B985809381019093DD
:102010008201A0938301B093840180919E019091ED
:102020009F01892B11F00E94730A0E94E40980919C
:1020300006019091070188709927892BE1F0809122
:102040008C0190918D01A0918E01B0918F012E8114
:102050003F814885598579018A01E81AF90A0A0BF6
:102060001B0BD801C70181369940A105B10538F194
:102070000E947A0B24C085E290E0FC01808180916F
:102080008C0190918D01A0918E01B0918F012E81D4
:102090003F814885598579018A01E81AF90A0A0BB6
:1020A0001B0BD801C701853C9940A105B10510F073
:1020B00081E001C080E0882311F00E94A10B85EC33
:1020C00091E00E94741721E0892B09F420E022237B
:1020D00009F465C1A89585EC91E00E948E178A8766
:1020E00080919601833078F480919601882F90E05A
:1020F0008E569E4F2A85FC012083809196018F5F2A
:1021000080939601DCCF80919601882F90E08E56C7
:102110009E4F2A85FC01208363E082E991E00E94C2
:10212000A206282F81E09A85291709F080E08823EC
:10213000C1F080919701823018F00E94890C05C08F
:10214000809197018F5F8093970110929601809103
:102150000601909107018F7E9093070180930601FD
:102160001EC1809106019091070181709927892BEA
:1021700049F08091060190910701806190930701D9
:102180008093060180910601909107018E7F9093C4
:1021900007018093060161E082E10E94291B80E033
:1021A00090E0A0E2B1E48B8F9C8FAD8FBE8F2BEAC5
:1021B0003AEA4AEA50E46B8D7C8D8D8D9E8D0E94AB
:1021C0000717DC01CB018F8F98A3A9A3BAA320E046
:1021D00030E040E850E46B8D7C8D8D8D9E8D0E94AB
:1021E0000717DC01CB018BA39CA3ADA3BEA320E00A
:1021F00030E040E85FE36F8D78A189A19AA10E9449
:10220000E71588231CF481E08FA3B2C020E03FEFE4
:102210004FE757E46BA17CA18DA19EA10E940217FC
:1022200018160CF07BC020E030E04AE754E46B8DD8
:102230007C8D8D8D9E8D0E94EC15DC01CB0188A7D5
:1022400099A7AAA7BBA720E030E04AE755E468A514
:1022500079A58AA59BA50E940717DC01CB018CA755
:102260009DA7AEA7BFA720E030E040E85FE36CA5E4
:102270007DA58EA59FA50E94E71588232CF481E0FB
:1022800090E099AB88AB3FC020E03FEF4FE757E4C9
:102290006CA57DA58EA59FA50E94021718164CF56A
:1022A00020E030E040E251E468A579A58AA59BA52D
:1022B0000E940717DC01CB01BC01CD010E945E1614
:1022C000DC01CB0199AB88AB88A999A9892B09F4CA
:1022D0004FC080E991E09BAB8AAB8AA99BA901978B
:1022E000F1F79BAB8AAB88A999A9019799AB88AB09
:1022F000EBCF6CA57DA58EA59FA50E945E16DC0187
:10230000CB0199AB88AB88A999A99DAB8CAB8CA963
:102310009DA90197F1F79DAB8CAB2AC020E030E07E
:102320004FE753E46F8D78A189A19AA10E9402170B
:102330001816ACF46BA17CA18DA19EA10E945E1623
:10234000DC01CB019FAB8EAB8EA99FA999AF88AF63
:1023500088AD99AD0197F1F799AF88AF0FC06F8D38
:1023600078A189A19AA10E945E16DC01CB018FA3FE
:102370008FA18AAF8AAD8A95F1F78AAF60E082E1DA
:102380000E94291B109297018091930180939201E2
:1023900080919401809393018A858093940161E0F8
:1023A00080E00E94FA0221E0893E934008F420E098
:1023B000222319F181E00E9407049C878B8780917A
:1023C0000801909109012B853C852817390760F099
:1023D0000E94AC0980917F0190918001846090936C
:1023E000800180937F0109C080917F0190918001DD
:1023F0008B7F9093800180937F0120910601309123
:10240000070180917F0190918001822B932B909303
:1024100007018093060183E10E94581B21E0892B6C
:1024200009F020E0222361F00E94C2098091060198
:10243000909107018062909307018093060109C083
:1024400080910601909107018F7D90930701809301
:10245000060184E10E94581B21E0892B09F020E04D
:10246000222361F00E94D309809106019091070117
:102470008064909307018093060109C08091060152
:10248000909107018F7B909307018093060161E093
:1024900081E00E94FA0221E0893E934008F420E0A6
:1024A000222321F181E00E94A7049E878D878D85DC
:1024B0009E858538934028F08D859E8580389C4088
:1024C00060F00E94AC09809106019091070180683C
:1024D000909307018093060109C0809106019091B5
:1024E00007018F77909307018093060161E082E0F6
:1024F0000E94FA02C39740F061E083E00E94FA0272
:10250000C39710F081E001C080E0882309F43EC049
:1025100081E00E94EE05988B8F8781E00E94540530
:102520009A8B898B80910A0190910B012F853889B4
:102530002817390748F480910C0190910D012989E1
:102540003A898217930760F40E94AC0980910601D2
:10255000909107018260909307018093060109C062
:1025600080910601909107018D7F909307018093E0
:1025700006018F8598898934914240F00E94AC0908
:102580008091A2019091A301FC010995809198018D
:10259000882F90E0833091053CF4813091050CF058
:1025A00040C1892B29F079C1039709F453C175C142
:1025B00080918501843008F461C185EC91E00E942E
:1025C0007518092E000CAA0BBB0B8B8B9C8BAD8B4B
:1025D000BE8B21E08B899C89AD89BE890497A105BA
:1025E000B10508F020E0222341F040E056E960E028
:1025F00070E085EC91E00E9430068091990191E0B5
:10260000980F90939901882F90E0092E000CAA0B47
:10261000BB0B40E050E02FE130E0841B950B281706
:10262000390708F42DC1825C9F4FFC010C94D31B29
:102630008091850184508093850160E084E00E9450
:10264000FA0221E00A9708F020E0222309F01AC1DB
:1026500080918801882329F48FEF9FEF9A838983E3
:1026600005C080E00E94CF059A83898387EA8B8327
:10267000CCC080910601909107019460909307016E
:102680008093060180910601909107019A838983C6
:1026900080910601909107019F77909307018093A5
:1026A00006018FE88B83B1C060E080E00E94FA02EF
:1026B000CC01A0E0B0E08F8B988FA98FBA8F21E07A
:1026C0008F89988DA98DBA8DC297A105B10508F0A3
:1026D00020E0222309F0D8C08F89988DA98DBA8D6A
:1026E000893E9340A105B10538F080E00E940704BF
:1026F0009093870180938601809186019091870154
:102700009A8389838CE18B8380C090919001809122
:102710009101981709F4BAC080919001882F90E038
:102720009E01255C3F4FB9010E94F714982F81E06C
:10273000992309F480E08823D1F08BAD882F90E0B5
:10274000382F222780919001882F90E0822B932BA5
:102750009A838983809190018F5F809390018AE9A9
:102760008B83809199018150809399014EC0809113
:1027700090018F5F8093900189C060E081E00E94AA
:10278000FA0221E0029708F020E0222309F080C03D
:1027900080E00E94A7049A83898383EB8B8335C0F2
:1027A00060E082E00E94FA0221E0892B09F420E037
:1027B000222309F46FC080E00E94EE059A8389838A
:1027C00089EF8B8322C060E083E00E94FA0221E05F
:1027D000892B09F420E0222309F45EC080E00E94E6
:1027E00054059A83898389819A81813B944008F4B6
:1027F00053C088E48B8309C081E092E09A83898387
:1028000088E88B831092990100008B8180939A0154
:10281000898180939B0189819A81892F992780934F
:102820009C0180919801882F90E086569E4FFC0174
:102830008081682F85EC91E00E94CC1780919801EF
:102840008F5F8093980161E070E080E090E00E94EB
:10285000C81923C063E08AE991E00E94A206682FAC
:1028600085EC91E00E94CC171092980161E070E035
:1028700080E090E00E94C81900000FC000000DC069
:1028800000000BC0000009C0000007C0000005C028
:10289000000003C0000001C00000EB960FB6F894E2
:1028A000DEBF0FBECDBFDF91CF911F910F91FF9083
:1028B000EF900895CF93DF93CDB7DEB72E970FB685
:1028C000F894DEBF0FBECDBF9E878D871C821B8212
:1028D0008B819C81039714F58B819C81382F222753
:1028E0008D859E85820F931F9E838D838D819E8112
:1028F0000E94F31BAC018B819C81880F991F9E0164
:102900002F5F3F4F820F931F0696FC015183408338
:102910008B819C8101969C838B83DACF2B853C85B0
:102920008F8198852817390739F02B853C85898553
:102930009A852817390729F48B859C859A83898382
:1029400004C08F8198859A8389838D859E858C5557
:102950009E4F29813A81FC013183208389819A81AC
:102960002E960FB6F894DEBF0FBECDBFDF91CF918C
:102970000895CF93DF93CDB7DEB728970FB6F894BD
:10298000DEBF0FBECDBF9E838D8378876F831A8293
:10299000198289819A810397BCF489819A81382FA1
:1029A00022278D819E81820F931F9C838B838B8135
:1029B0009C812F813885B9010E94F91B89819A81F8
:1029C00001969A838983E5CF8D819E818C559E4F98
:1029D0002F813885FC0131832083000028960FB6B3
:1029E000F894DEBF0FBECDBFDF91CF910895CF9396
:1029F000DF9300D000D000D0CDB7DEB79C838B83AF
:102A00007E836D838B819C8181709927892BB1F0A6
:102A100080911A01882F90E09C012F5F3F4F8B819E
:102A20009C812817390741F42091C3018D819E8133
:102A3000FC01208381E017C080E015C08B819C8160
:102A40000E945A149A83898329818D819E81FC0179
:102A5000208389819A81892F99278093C3018B8153
:102A600080931A0181E026960FB6F894DEBF0FBE60
:102A7000CDBFDF91CF910895CF93DF9300D01F9208
:102A8000CDB7DEB79A8389836B8389819A81817000
:102A90009927892B01F180911B01882F90E09C01DF
:102AA0002F5F3F4F89819A8128173907D1F4809190
:102AB000C401282F30E08B81882F90E0982F882741
:102AC000822B932B9C0180911B01882F90E0B901F0
:102AD0000E94B91406C08B818093C40189818093C0
:102AE0001B0100000F900F900F90DF91CF91089580
:102AF000CF93DF9300D000D000D0CDB7DEB79E8358
:102B00008D838D819E81892F99279A8389838D81D9
:102B10009E8199279C838B8389819A814FEF489F5F
:102B20009001499F300D11248B819C81820F931F4E
:102B300026960FB6F894DEBF0FBECDBFDF91CF91C2
:102B40000895CF93DF9300D000D000D0CDB7DEB78B
:102B50009E838D838D819E810E947815CC01A0E09B
:102B6000B0E089839A83AB83BC8389819A819F5724
:102B700026960FB6F894DEBF0FBECDBFDF91CF9182
:102B80000895CF93DF9300D0CDB7DEB78091BB011E
:102B90009091BC010E94A1159A83898389819A81B1
:102BA000029728F482E090E09A83898309C08981A2
:102BB0009A818536910520F085E090E09A8389839B
:102BC00089819A810F900F90DF91CF9108950E9493
:102BD0008D1608F481E008950E9400160C94C81622
:102BE0000E94C11658F00E94BA1640F029F45F3FC7
:102BF00029F00C94B11651110C94FC160C94B716D4
:102C00000E94D91668F39923B1F3552391F3951BCC
:102C1000550BBB27AA2762177307840738F09F5FFD
:102C20005F4F220F331F441FAA1FA9F335D00E2E6A
:102C30003AF0E0E832D091505040E695001CCAF7D7
:102C40002BD0FE2F29D0660F771F881FBB1F26179A
:102C500037074807AB07B0E809F0BB0B802DBF0171
:102C6000FF2793585F4F3AF09E3F510578F00C9440
:102C7000B1160C94FC165F3FE4F3983ED4F38695AE
:102C800077956795B795F7959F5FC9F7880F911D61
:102C90009695879597F90895E1E0660F771F881F4D
:102CA000BB1F621773078407BA0720F0621B730B00
:102CB000840BBA0BEE1F88F7E09508950E94E11689
:102CC00088F09F5798F0B92F9927B751B0F0E1F0ED
:102CD000660F771F881F991F1AF0BA95C9F714C09D
:102CE000B13091F00E94FB16B1E008950C94FB16F0
:102CF000672F782F8827B85F39F0B93FCCF38695D6
:102D000077956795B395D9F73EF490958095709532
:102D100061957F4F8F4F9F4F0895990F0008550F72
:102D2000AA0BE0E8FEEF16161706E807F907C0F051
:102D300012161306E407F50798F0621B730B840B59
:102D4000950B39F40A2661F0232B242B252B21F433
:102D500008950A2609F4A140A6958FEF811D811DD3
:102D6000089597F99F6780E870E060E008959FEF0D
:102D700080EC089500240A94161617061806090612
:102D8000089500240A9412161306140605060895E1
:102D9000092E0394000C11F4882352F0BB0F40F469
:102DA000BF2B11F460FF04C06F5F7F4F8F4F9F4FA9
:102DB000089557FD9058440F551F59F05F3F71F02B
:102DC0004795880F97FB991F61F09F3F79F0879592
:102DD0000895121613061406551FF2CF4695F1DF1B
:102DE00008C0161617061806991FF1CF86957105AB
:102DF000610508940895E894BB2766277727CB01DF
:102E000097F908950E948D1608F48FEF08950E9497
:102E10001A170C94C8160E94BA1638F00E94C116F0
:102E200020F0952311F00C94B1160C94B7161124D0
:102E30000C94FC160E94D91670F3959FC1F3950F60
:102E400050E0551F629FF001729FBB27F00DB11D2E
:102E5000639FAA27F00DB11DAA1F649F6627B00DBE
:102E6000A11D661F829F2227B00DA11D621F739FA7
:102E7000B00DA11D621F839FA00D611D221F749FB5
:102E80003327A00D611D231F849F600D211D822FFC
:102E9000762F6A2F11249F5750409AF0F1F0882323
:102EA0004AF0EE0FFF1FBB1F661F771F881F915050
:102EB0005040A9F79E3F510580F00C94B1160C9438
:102EC000FC165F3FE4F3983ED4F3869577956795BB
:102ED000B795F795E7959F5FC1F7FE2B880F911D7A
:102EE0009695879597F90895FC01918D228D892FEC
:102EF00090E0805C9F4F821B91098F739927089502
:102F0000FC01918D828D981731F0828DE80FF11DB3
:102F1000858D90E008958FEF9FEF0895FC01918DCE
:102F2000828D981761F0828DDF01A80FB11D5D962B
:102F30008C91928D9F5F9F73928F90E008958FEF99
:102F40009FEF08958CED98E1892B49F080E090E0A7
:102F5000892B29F00E94DC1881110C94000008953F
:102F6000FC01848DDF01A80FB11DA35ABF4F2C9126
:102F7000848D90E001968F739927848FA689B789F5
:102F80002C93938D848D981306C00288F389E02DCD
:102F900080818D7F80830895EF92FF920F931F931E
:102FA000CF93DF93EC0181E0888F2B8D9C8D2913CB
:102FB0000DC0EA89FB8920819091C9002695217076
:102FC000281721F092959170981325C0F62E0B8D3D
:102FD00010E00F5F1F4F0F731127E02E8C8DE8124A
:102FE0000CC00FB607FCFACFE889F989808181FF10
:102FF000F5CFCE010E94B017F1CF8B8DFE01E80F07
:10300000F11DE35AFF4FF0820B8FEA89FB89808123
:103010008260808306C0808182608083EE89FF8920
:10302000608381E090E0DF91CF911F910F91FF903D
:10303000EF900895CF93DF93EC01888D8823C9F03A
:10304000EA89FB89808181FD05C0A889B9898C91B5
:1030500081FD0FC00FB607FCF5CF808181FFF2CF55
:10306000A889B9898C9181FFEDCFCE010E94B0175C
:10307000E7CFDF91CF9108951F93CF93DF93EC01BA
:10308000122F88E88093CC009A01AB0183E0220FD5
:10309000331F441F551F8A95D1F760E074E284EF17
:1030A00090E00E94921B21503109EC85FD85308310
:1030B000EE85FF852083188E1F608FE08093C90006
:1030C000EC89FD8910831A8E198E1C8E1B8EEA895D
:1030D000FB89808181608083EA89FB8980818D7F83
:1030E0008083DF91CF911F910895FC01538D448D12
:1030F000252F30E0842F90E0821B930B541710F0A3
:10310000CF960895019708951F920F920FB60F92D0
:1031100011242F933F934F935F936F937F938F93DC
:103120009F93AF93BF93EF93FF938091C90080FF6C
:1031300015C0E091DB01F091DC0190818091DE010E
:103140008F5F8F732091DF01821741F0E091DE01E4
:10315000F0E0EB53FE4F958F8093DE018091C90024
:1031600081FF19C09091E0018091E101981729F049
:1031700085EC91E00E94B0170EC0E091D701F0916C
:10318000D80180818D7F8083E091D501F091D601B7
:10319000808182608083FF91EF91BF91AF919F9179
:1031A0008F917F916F915F914F913F912F910F90F0
:1031B0000FBE0F901F90189585EC91E00E94741738
:1031C00021E0892B09F420E0822F0895E5ECF1E05D
:1031D0001382128288EE93E0A0E0B0E084839583AE
:1031E000A683B7838FE291E0918380838EEC90E099
:1031F000958784878DEC90E09787868789EC90E0AF
:10320000918B808B8AEC90E0938B828B88EC90E0A2
:10321000958B848B82ED90E0978B868B118E128E2E
:10322000138E148E089508950E940F1A0E94131988
:103230000E94B806C2EAD7E10E94210F2097E1F36D
:103240000E94A217F9CFCF92DF92EF92FF920F93D5
:103250001F93CF93DF936C017A018B01C0E0D0E024
:10326000CE15DF0581F0D8016D918D01D601ED916C
:10327000FC910190F081E02DC6010995892B11F098
:103280002196EECF7E01C701DF91CF911F910F9163
:10329000FF90EF90DF90CF9008951F920F920FB69E
:1032A0000F9211242F933F938F939F93AF93BF93CC
:1032B0008091630290916402A0916502B0916602D0
:1032C0003091620223E0230F2D3720F40196A11DD7
:1032D000B11D05C026E8230F0296A11DB11D209344
:1032E00062028093630290936402A0936502B0939C
:1032F00066028091670290916802A0916902B09184
:103300006A020196A11DB11D809367029093680225
:10331000A0936902B0936A02BF91AF919F918F9180
:103320003F912F910F900FBE0F901F9018952FB7C0
:10333000F8946091630270916402809165029091AB
:1033400066022FBF08953FB7F8948091670290916D
:103350006802A0916902B0916A0226B5A89B05C0D7
:103360002F3F19F00196A11DB11D3FBFBA2FA92F04
:10337000982F8827820F911DA11DB11DBC01CD0181
:1033800042E0660F771F881F991F4A95D1F708956D
:103390008F929F92AF92BF92CF92DF92EF92FF9265
:1033A0006B017C010E94A3194B015C01C114D10483
:1033B000E104F10401F10E94811B0E94A319DC01C8
:1033C000CB0188199909AA09BB09883E9340A10538
:1033D000B10560F321E0C21AD108E108F10888EED6
:1033E000880E83E0981EA11CB11CC114D104E10415
:1033F000F10419F7DBCFFF90EF90DF90CF90BF90F3
:10340000AF909F908F9008958230910538F0880F8B
:10341000991F880F991F05970197F1F708957894E0
:1034200084B5826084BD84B5816084BD85B58260C9
:1034300085BD85B5816085BDEEE6F0E08081816067
:103440008083E1E8F0E01082808182608083808167
:1034500081608083E0E8F0E0808181608083EAE73A
:10346000F0E08081846080838081826080838081BD
:103470008160808380818068808380E280937B008C
:10348000E8ECF0E080818068808308958230B1F0BC
:1034900018F4813081F00895833019F0843029F0D8
:1034A0000895809180008F7703C0809180008F7D88
:1034B00080938000089584B58F7702C084B58F7D96
:1034C00084BD08951F93CF93DF93D62F282F30E02C
:1034D000F901EC52FE4FC491F901E451FE4F1491F1
:1034E0009091B6009093B6008A31B9F460E089E01B
:1034F0000E94621A60E088E00E94621A80917F0058
:10350000886180937F002D2F237080E1289F900198
:10351000112420682093750066C08B31B9F460E0F7
:1035200083E10E94621A60E082E10E94621A809147
:103530007F00836080937F002D2F2370A0E12A9F5E
:10354000900111242068209376004DC08C31E1F465
:1035500060E08AE00E94621A60E085E10E94621ADF
:1035600080917F00806480937F0080917E008064E2
:1035700080937E002D2F2370B0E12B9F90011124AA
:103580002068209377002FC098EF980F923040F476
:103590001092750080917F00877E80937F0023C00A
:1035A0009EEE980F923040F41092760090917F003A
:1035B0009C7F90937F0010C08A3011F0853199F480
:1035C0001092770090917F009F7B90937F00909165
:1035D0007E009F7B90937E008A3029F4809190003A
:1035E0008C7F80939000112381F1812F90E0880FD0
:1035F000991FFC01E85EFD4F25913491FC01E25FCB
:10360000FD4FA591B491D1110AC09FB7F894F9016B
:103610008081C0958C238083EC91CE230CC0D23066
:1036200069F49FB7F894F90180814C2F4095842369
:103630008083EC91CE2BCC939FBF07C08FB7F894BB
:10364000D901EC91CE2BCC938FBFDF91CF911F91FD
:1036500008951F93CF93DF93282F30E0F901E454AE
:10366000FE4F8491F901EC52FE4FD491F901E451DF
:10367000FE4FC491CC23C1F0162F81110E94461A2F
:10368000EC2FF0E0EE0FFF1FE25FFD4FA591B4912C
:103690009FB7F894111104C08C91D095D82302C023
:1036A000EC91DE2BDC939FBFDF91CF911F910895AA
:1036B000CF93DF93282F30E0F901E454FE4F84913B
:1036C000F901EC52FE4FD491F901E451FE4FC4913F
:1036D000CC2391F081110E94461AEC2FF0E0EE0FFE
:1036E000FF1FEC5FFD4FA591B491EC91ED2381E0BC
:1036F00090E021F480E002C080E090E0DF91CF9183
:1037000008950895DB018F939F930E94E81BBF915A
:10371000AF91A29F800D911DA39F900DB29F900D20
:1037200011240895A1E21A2EAA1BBB1BFD010DC096
:10373000AA1FBB1FEE1FFF1FA217B307E407F50761
:1037400020F0A21BB30BE40BF50B661F771F881F3D
:10375000991F1A9469F760957095809590959B01D3
:10376000AC01BD01CF010895052E97FB1EF4009416
:103770000E94CB1B57FD07D00E94921B07FC03D071
:103780004EF40C94CB1B50954095309521953F4FAE
:103790004F4F5F4F089590958095709561957F4F3D
:1037A0008F4F9F4F0895EE0FFF1F0590F491E02D6E
:1037B0000994A29FB001B39FC001A39F700D811D0A
:1037C0001124911DB29F700D811D1124911D08952A
:1037D0000E94D91BA59F900DB49F900DA49F800DB2
:1037E000911D11240895A8E1B0E042E050E00C944E
:1037F000011C0196272F0E94101C0C940F1CDC0149
:10380000CB01FC01F999FECF06C0F2BDE1BDF89AEB
:10381000319600B40D9241505040B8F70895262FCC
:10382000F999FECF92BD81BDF89A019700B40216B6
:1038300039F01FBA20BD0FB6F894FA9AF99A0FBE64
:063840000895F894FFCF8B
:103846000200140020000080A00F3421342114143B
:10385600FFFFFFFFE803E803003CFFFF03020B0541
:10386600062000080004000400100000000000CC40
:0C38760017231974178E1780171A1800FA
:00000001FF
